{
  "_format": "hh-sol-artifact-1",
  "contractName": "LicenseManager",
  "sourceName": "contracts/licensemanager.sol",
  "abi": [
    {
      "inputs": [],
      "stateMutability": "nonpayable",
      "type": "constructor"
    },
    {
      "anonymous": false,
      "inputs": [
        {
          "indexed": true,
          "internalType": "string",
          "name": "licenseKey",
          "type": "string"
        },
        {
          "indexed": false,
          "internalType": "address",
          "name": "reporter",
          "type": "address"
        }
      ],
      "name": "LicenseCracked",
      "type": "event"
    },
    {
      "anonymous": false,
      "inputs": [
        {
          "indexed": true,
          "internalType": "address",
          "name": "user",
          "type": "address"
        },
        {
          "indexed": false,
          "internalType": "string",
          "name": "licenseKey",
          "type": "string"
        },
        {
          "indexed": false,
          "internalType": "string",
          "name": "softwareName",
          "type": "string"
        },
        {
          "indexed": false,
          "internalType": "string",
          "name": "softwareHash",
          "type": "string"
        }
      ],
      "name": "LicenseIssued",
      "type": "event"
    },
    {
      "anonymous": false,
      "inputs": [
        {
          "indexed": true,
          "internalType": "string",
          "name": "licenseKey",
          "type": "string"
        },
        {
          "indexed": false,
          "internalType": "address",
          "name": "reporter",
          "type": "address"
        }
      ],
      "name": "LicenseTampered",
      "type": "event"
    },
    {
      "anonymous": false,
      "inputs": [
        {
          "indexed": true,
          "internalType": "string",
          "name": "hash",
          "type": "string"
        },
        {
          "indexed": false,
          "internalType": "address",
          "name": "developer",
          "type": "address"
        }
      ],
      "name": "SoftwareAdded",
      "type": "event"
    },
    {
      "anonymous": false,
      "inputs": [
        {
          "indexed": true,
          "internalType": "string",
          "name": "hash",
          "type": "string"
        }
      ],
      "name": "SoftwareApproved",
      "type": "event"
    },
    {
      "anonymous": false,
      "inputs": [
        {
          "indexed": true,
          "internalType": "string",
          "name": "hash",
          "type": "string"
        }
      ],
      "name": "SoftwareRejected",
      "type": "event"
    },
    {
      "inputs": [
        {
          "internalType": "string",
          "name": "hash",
          "type": "string"
        },
        {
          "internalType": "address",
          "name": "developer",
          "type": "address"
        }
      ],
      "name": "addSoftware",
      "outputs": [],
      "stateMutability": "nonpayable",
      "type": "function"
    },
    {
      "inputs": [],
      "name": "admin",
      "outputs": [
        {
          "internalType": "address",
          "name": "",
          "type": "address"
        }
      ],
      "stateMutability": "view",
      "type": "function"
    },
    {
      "inputs": [
        {
          "internalType": "string",
          "name": "hash",
          "type": "string"
        }
      ],
      "name": "approveSoftware",
      "outputs": [],
      "stateMutability": "nonpayable",
      "type": "function"
    },
    {
      "inputs": [],
      "name": "getAllSoftware",
      "outputs": [
        {
          "internalType": "string[]",
          "name": "hashes",
          "type": "string[]"
        },
        {
          "internalType": "bool[]",
          "name": "isApproved",
          "type": "bool[]"
        },
        {
          "internalType": "bool[]",
          "name": "isRejected",
          "type": "bool[]"
        },
        {
          "internalType": "address[]",
          "name": "developers",
          "type": "address[]"
        }
      ],
      "stateMutability": "view",
      "type": "function"
    },
    {
      "inputs": [
        {
          "internalType": "string",
          "name": "licenseKey",
          "type": "string"
        }
      ],
      "name": "getLicenseDetails",
      "outputs": [
        {
          "internalType": "string",
          "name": "softwareName",
          "type": "string"
        },
        {
          "internalType": "string",
          "name": "softwareHash",
          "type": "string"
        },
        {
          "internalType": "bool",
          "name": "exists",
          "type": "bool"
        },
        {
          "internalType": "bool",
          "name": "isTampered",
          "type": "bool"
        },
        {
          "internalType": "bool",
          "name": "isCracked",
          "type": "bool"
        },
        {
          "internalType": "uint256",
          "name": "issuedAt",
          "type": "uint256"
        }
      ],
      "stateMutability": "view",
      "type": "function"
    },
    {
      "inputs": [
        {
          "internalType": "string",
          "name": "hash",
          "type": "string"
        }
      ],
      "name": "getSoftwareDetails",
      "outputs": [
        {
          "internalType": "string",
          "name": "hash_",
          "type": "string"
        },
        {
          "internalType": "bool",
          "name": "isApproved",
          "type": "bool"
        },
        {
          "internalType": "bool",
          "name": "isRejected",
          "type": "bool"
        },
        {
          "internalType": "address",
          "name": "developer",
          "type": "address"
        }
      ],
      "stateMutability": "view",
      "type": "function"
    },
    {
      "inputs": [
        {
          "internalType": "address",
          "name": "user",
          "type": "address"
        }
      ],
      "name": "getUserLicenses",
      "outputs": [
        {
          "internalType": "string[]",
          "name": "",
          "type": "string[]"
        }
      ],
      "stateMutability": "view",
      "type": "function"
    },
    {
      "inputs": [
        {
          "internalType": "string",
          "name": "licenseKey",
          "type": "string"
        }
      ],
      "name": "isAuthentic",
      "outputs": [
        {
          "internalType": "bool",
          "name": "",
          "type": "bool"
        }
      ],
      "stateMutability": "view",
      "type": "function"
    },
    {
      "inputs": [
        {
          "internalType": "string",
          "name": "licenseKey",
          "type": "string"
        },
        {
          "internalType": "string",
          "name": "softwareName",
          "type": "string"
        }
      ],
      "name": "issueLicense",
      "outputs": [],
      "stateMutability": "nonpayable",
      "type": "function"
    },
    {
      "inputs": [
        {
          "internalType": "string",
          "name": "",
          "type": "string"
        }
      ],
      "name": "licenses",
      "outputs": [
        {
          "internalType": "string",
          "name": "softwareName",
          "type": "string"
        },
        {
          "internalType": "string",
          "name": "softwareHash",
          "type": "string"
        },
        {
          "internalType": "bool",
          "name": "isTampered",
          "type": "bool"
        },
        {
          "internalType": "bool",
          "name": "isCracked",
          "type": "bool"
        },
        {
          "internalType": "bool",
          "name": "exists",
          "type": "bool"
        },
        {
          "internalType": "uint256",
          "name": "issuedAt",
          "type": "uint256"
        }
      ],
      "stateMutability": "view",
      "type": "function"
    },
    {
      "inputs": [
        {
          "internalType": "string",
          "name": "hash",
          "type": "string"
        }
      ],
      "name": "rejectSoftware",
      "outputs": [],
      "stateMutability": "nonpayable",
      "type": "function"
    },
    {
      "inputs": [
        {
          "internalType": "string",
          "name": "licenseKey",
          "type": "string"
        }
      ],
      "name": "reportCracked",
      "outputs": [],
      "stateMutability": "nonpayable",
      "type": "function"
    },
    {
      "inputs": [
        {
          "internalType": "string",
          "name": "licenseKey",
          "type": "string"
        }
      ],
      "name": "reportTampered",
      "outputs": [],
      "stateMutability": "nonpayable",
      "type": "function"
    },
    {
      "inputs": [
        {
          "internalType": "string",
          "name": "",
          "type": "string"
        }
      ],
      "name": "softwareRecords",
      "outputs": [
        {
          "internalType": "string",
          "name": "hash",
          "type": "string"
        },
        {
          "internalType": "bool",
          "name": "isApproved",
          "type": "bool"
        },
        {
          "internalType": "bool",
          "name": "isRejected",
          "type": "bool"
        },
        {
          "internalType": "address",
          "name": "developer",
          "type": "address"
        }
      ],
      "stateMutability": "view",
      "type": "function"
    },
    {
      "inputs": [
        {
          "internalType": "address",
          "name": "newAdmin",
          "type": "address"
        }
      ],
      "name": "transferAdmin",
      "outputs": [],
      "stateMutability": "nonpayable",
      "type": "function"
    },
    {
      "inputs": [
        {
          "internalType": "address",
          "name": "",
          "type": "address"
        },
        {
          "internalType": "uint256",
          "name": "",
          "type": "uint256"
        }
      ],
      "name": "userLicenses",
      "outputs": [
        {
          "internalType": "string",
          "name": "",
          "type": "string"
        }
      ],
      "stateMutability": "view",
      "type": "function"
    }
  ],
  "bytecode": "0x6080604052348015600f57600080fd5b50336000806101000a81548173ffffffffffffffffffffffffffffffffffffffff021916908373ffffffffffffffffffffffffffffffffffffffff1602179055506138358061005f6000396000f3fe608060405234801561001057600080fd5b50600436106101005760003560e01c806367c26ef311610097578063d00fc63a11610066578063d00fc63a146102df578063d4dc42c3146102fb578063e7c9231a1461032e578063f851a4401461034a57610100565b806367c26ef31461024257806375829def1461025e57806375a106c31461027a578063c131a2c9146102aa57610100565b80632af58bf9116100d35780632af58bf9146101b95780633184b1b5146101d5578063454c1d31146101f657806366661a311461022657610100565b80630540dafd1461010557806313c53c221461013a5780631c0030771461016d5780631ef927491461019d575b600080fd5b61011f600480360381019061011a9190612473565b610368565b6040516101319695949392919061256f565b60405180910390f35b610154600480360381019061014f9190612473565b6104f1565b604051610164949392919061261f565b60405180910390f35b610187600480360381019061018291906126cb565b6105f9565b6040516101949190612718565b60405180910390f35b6101b760048036038101906101b291906126cb565b6107d2565b005b6101d360048036038101906101ce91906126cb565b610a7e565b005b6101dd610c34565b6040516101ed94939291906129bb565b60405180910390f35b610210600480360381019061020b9190612a74565b611064565b60405161021d9190612ab4565b60405180910390f35b610240600480360381019061023b91906126cb565b61111d565b005b61025c60048036038101906102579190612ad6565b6112d3565b005b61027860048036038101906102739190612b57565b611773565b005b610294600480360381019061028f9190612b57565b6118b3565b6040516102a19190612b84565b60405180910390f35b6102c460048036038101906102bf91906126cb565b6119cb565b6040516102d69695949392919061256f565b60405180910390f35b6102f960048036038101906102f49190612ba6565b611bb7565b005b610315600480360381019061031091906126cb565b611ed0565b604051610325949392919061261f565b60405180910390f35b610348600480360381019061034391906126cb565b612049565b005b6103526122f5565b60405161035f9190612c06565b60405180910390f35b6002818051602081018201805184825260208301602085012081835280955050505050506000915090508060000180546103a190612c50565b80601f01602080910402602001604051908101604052809291908181526020018280546103cd90612c50565b801561041a5780601f106103ef5761010080835404028352916020019161041a565b820191906000526020600020905b8154815290600101906020018083116103fd57829003601f168201915b50505050509080600101805461042f90612c50565b80601f016020809104026020016040519081016040528092919081815260200182805461045b90612c50565b80156104a85780601f1061047d576101008083540402835291602001916104a8565b820191906000526020600020905b81548152906001019060200180831161048b57829003601f168201915b5050505050908060020160009054906101000a900460ff16908060020160019054906101000a900460ff16908060020160029054906101000a900460ff16908060030154905086565b60038180516020810182018051848252602083016020850120818352809550505050505060009150905080600001805461052a90612c50565b80601f016020809104026020016040519081016040528092919081815260200182805461055690612c50565b80156105a35780601f10610578576101008083540402835291602001916105a3565b820191906000526020600020905b81548152906001019060200180831161058657829003601f168201915b5050505050908060010160009054906101000a900460ff16908060010160019054906101000a900460ff16908060010160029054906101000a900473ffffffffffffffffffffffffffffffffffffffff16905084565b6000806002848460405161060e929190612cb1565b90815260200160405180910390206040518060c001604052908160008201805461063790612c50565b80601f016020809104026020016040519081016040528092919081815260200182805461066390612c50565b80156106b05780601f10610685576101008083540402835291602001916106b0565b820191906000526020600020905b81548152906001019060200180831161069357829003601f168201915b505050505081526020016001820180546106c990612c50565b80601f01602080910402602001604051908101604052809291908181526020018280546106f590612c50565b80156107425780601f1061071757610100808354040283529160200191610742565b820191906000526020600020905b81548152906001019060200180831161072557829003601f168201915b505050505081526020016002820160009054906101000a900460ff161515151581526020016002820160019054906101000a900460ff161515151581526020016002820160029054906101000a900460ff161515151581526020016003820154815250509050806080015180156107bb57508060400151155b80156107c957508060600151155b91505092915050565b60008054906101000a900473ffffffffffffffffffffffffffffffffffffffff1673ffffffffffffffffffffffffffffffffffffffff163373ffffffffffffffffffffffffffffffffffffffff1614610860576040517f08c379a000000000000000000000000000000000000000000000000000000000815260040161085790612d3c565b60405180910390fd5b600082829050116108a6576040517f08c379a000000000000000000000000000000000000000000000000000000000815260040161089d90612da8565b60405180910390fd5b6000600383836040516108ba929190612cb1565b908152602001604051809103902060000180546108d690612c50565b905003610918576040517f08c379a000000000000000000000000000000000000000000000000000000000815260040161090f90612e14565b60405180910390fd5b6003828260405161092a929190612cb1565b908152602001604051809103902060010160019054906101000a900460ff1615610989576040517f08c379a000000000000000000000000000000000000000000000000000000000815260040161098090612e80565b60405180910390fd5b6003828260405161099b929190612cb1565b908152602001604051809103902060010160009054906101000a900460ff16156109fa576040517f08c379a00000000000000000000000000000000000000000000000000000000081526004016109f190612eec565b60405180910390fd5b600160038383604051610a0e929190612cb1565b908152602001604051809103902060010160006101000a81548160ff0219169083151502179055508181604051610a46929190612cb1565b60405180910390207fed5c430c5d6811d96519ad3a583b7fce75648ddc62d74873ab687a9f16f3ac8160405160405180910390a25050565b60008282905011610ac4576040517f08c379a0000000000000000000000000000000000000000000000000000000008152600401610abb90612f58565b60405180910390fd5b60028282604051610ad6929190612cb1565b908152602001604051809103902060020160029054906101000a900460ff16610b34576040517f08c379a0000000000000000000000000000000000000000000000000000000008152600401610b2b90612fc4565b60405180910390fd5b60028282604051610b46929190612cb1565b908152602001604051809103902060020160009054906101000a900460ff1615610ba5576040517f08c379a0000000000000000000000000000000000000000000000000000000008152600401610b9c90613030565b60405180910390fd5b600160028383604051610bb9929190612cb1565b908152602001604051809103902060020160006101000a81548160ff0219169083151502179055508181604051610bf1929190612cb1565b60405180910390207fd135e5ec6fdcbcf982af5e6fe7a390999dfba9829762f3c6d77df17ce5a958c733604051610c289190612c06565b60405180910390a25050565b60608060608060048054905067ffffffffffffffff811115610c5957610c58612348565b5b604051908082528060200260200182016040528015610c8c57816020015b6060815260200190600190039081610c775790505b50935060048054905067ffffffffffffffff811115610cae57610cad612348565b5b604051908082528060200260200182016040528015610cdc5781602001602082028036833780820191505090505b50925060048054905067ffffffffffffffff811115610cfe57610cfd612348565b5b604051908082528060200260200182016040528015610d2c5781602001602082028036833780820191505090505b50915060048054905067ffffffffffffffff811115610d4e57610d4d612348565b5b604051908082528060200260200182016040528015610d7c5781602001602082028036833780820191505090505b50905060005b60048054905081101561105d57600060048281548110610da557610da4613050565b5b906000526020600020018054610dba90612c50565b80601f0160208091040260200160405190810160405280929190818152602001828054610de690612c50565b8015610e335780601f10610e0857610100808354040283529160200191610e33565b820191906000526020600020905b815481529060010190602001808311610e1657829003601f168201915b505050505090506000600382604051610e4c91906130b0565b9081526020016040518091039020604051806080016040529081600082018054610e7590612c50565b80601f0160208091040260200160405190810160405280929190818152602001828054610ea190612c50565b8015610eee5780601f10610ec357610100808354040283529160200191610eee565b820191906000526020600020905b815481529060010190602001808311610ed157829003601f168201915b505050505081526020016001820160009054906101000a900460ff161515151581526020016001820160019054906101000a900460ff161515151581526020016001820160029054906101000a900473ffffffffffffffffffffffffffffffffffffffff1673ffffffffffffffffffffffffffffffffffffffff1673ffffffffffffffffffffffffffffffffffffffff168152505090508060000151878481518110610f9d57610f9c613050565b5b60200260200101819052508060200151868481518110610fc057610fbf613050565b5b6020026020010190151590811515815250508060400151858481518110610fea57610fe9613050565b5b602002602001019015159081151581525050806060015184848151811061101457611013613050565b5b602002602001019073ffffffffffffffffffffffffffffffffffffffff16908173ffffffffffffffffffffffffffffffffffffffff168152505050508080600101915050610d82565b5090919293565b6001602052816000526040600020818154811061108057600080fd5b9060005260206000200160009150915050805461109c90612c50565b80601f01602080910402602001604051908101604052809291908181526020018280546110c890612c50565b80156111155780601f106110ea57610100808354040283529160200191611115565b820191906000526020600020905b8154815290600101906020018083116110f857829003601f168201915b505050505081565b60008282905011611163576040517f08c379a000000000000000000000000000000000000000000000000000000000815260040161115a90612f58565b60405180910390fd5b60028282604051611175929190612cb1565b908152602001604051809103902060020160029054906101000a900460ff166111d3576040517f08c379a00000000000000000000000000000000000000000000000000000000081526004016111ca90612fc4565b60405180910390fd5b600282826040516111e5929190612cb1565b908152602001604051809103902060020160019054906101000a900460ff1615611244576040517f08c379a000000000000000000000000000000000000000000000000000000000815260040161123b90613113565b60405180910390fd5b600160028383604051611258929190612cb1565b908152602001604051809103902060020160016101000a81548160ff0219169083151502179055508181604051611290929190612cb1565b60405180910390207f23c663a264db9efe4a2619e5eae301b37626dbf125b35fe4a3850f23d30ea983336040516112c79190612c06565b60405180910390a25050565b60008484905011611319576040517f08c379a000000000000000000000000000000000000000000000000000000000815260040161131090612f58565b60405180910390fd5b6000828290501161135f576040517f08c379a00000000000000000000000000000000000000000000000000000000081526004016113569061317f565b60405180910390fd5b60028484604051611371929190612cb1565b908152602001604051809103902060020160029054906101000a900460ff16156113d0576040517f08c379a00000000000000000000000000000000000000000000000000000000081526004016113c7906131eb565b60405180910390fd5b6000600385856040516113e4929190612cb1565b9081526020016040518091039020600001805461140090612c50565b905003611442576040517f08c379a000000000000000000000000000000000000000000000000000000000815260040161143990613257565b60405180910390fd5b60038484604051611454929190612cb1565b908152602001604051809103902060010160009054906101000a900460ff166114b2576040517f08c379a00000000000000000000000000000000000000000000000000000000081526004016114a9906132c3565b60405180910390fd5b600384846040516114c4929190612cb1565b908152602001604051809103902060010160019054906101000a900460ff1615611523576040517f08c379a000000000000000000000000000000000000000000000000000000000815260040161151a90612e80565b60405180910390fd5b6040518060c0016040528083838080601f016020809104026020016040519081016040528093929190818152602001838380828437600081840152601f19601f82011690508083019250505050505050815260200185858080601f016020809104026020016040519081016040528093929190818152602001838380828437600081840152601f19601f82011690508083019250505050505050815260200160001515815260200160001515815260200160011515815260200142815250600285856040516115f3929190612cb1565b90815260200160405180910390206000820151816000019081611616919061348f565b50602082015181600101908161162c919061348f565b5060408201518160020160006101000a81548160ff02191690831515021790555060608201518160020160016101000a81548160ff02191690831515021790555060808201518160020160026101000a81548160ff02191690831515021790555060a08201518160030155905050600160003373ffffffffffffffffffffffffffffffffffffffff1673ffffffffffffffffffffffffffffffffffffffff16815260200190815260200160002084849091806001815401808255809150506001900390600052602060002001600090919290919290919290919250918261171492919061356c565b503373ffffffffffffffffffffffffffffffffffffffff167f7cf69261d61f396c5fd8157f411ae4c97b857367d759afcfb7dc5a371e57445b85858585898960405161176596959493929190613669565b60405180910390a250505050565b60008054906101000a900473ffffffffffffffffffffffffffffffffffffffff1673ffffffffffffffffffffffffffffffffffffffff163373ffffffffffffffffffffffffffffffffffffffff1614611801576040517f08c379a00000000000000000000000000000000000000000000000000000000081526004016117f890612d3c565b60405180910390fd5b600073ffffffffffffffffffffffffffffffffffffffff168173ffffffffffffffffffffffffffffffffffffffff1603611870576040517f08c379a000000000000000000000000000000000000000000000000000000000815260040161186790613707565b60405180910390fd5b806000806101000a81548173ffffffffffffffffffffffffffffffffffffffff021916908373ffffffffffffffffffffffffffffffffffffffff16021790555050565b6060600160008373ffffffffffffffffffffffffffffffffffffffff1673ffffffffffffffffffffffffffffffffffffffff168152602001908152602001600020805480602002602001604051908101604052809291908181526020016000905b828210156119c057838290600052602060002001805461193390612c50565b80601f016020809104026020016040519081016040528092919081815260200182805461195f90612c50565b80156119ac5780601f10611981576101008083540402835291602001916119ac565b820191906000526020600020905b81548152906001019060200180831161198f57829003601f168201915b505050505081526020019060010190611914565b505050509050919050565b6060806000806000806000600289896040516119e8929190612cb1565b90815260200160405180910390206040518060c0016040529081600082018054611a1190612c50565b80601f0160208091040260200160405190810160405280929190818152602001828054611a3d90612c50565b8015611a8a5780601f10611a5f57610100808354040283529160200191611a8a565b820191906000526020600020905b815481529060010190602001808311611a6d57829003601f168201915b50505050508152602001600182018054611aa390612c50565b80601f0160208091040260200160405190810160405280929190818152602001828054611acf90612c50565b8015611b1c5780601f10611af157610100808354040283529160200191611b1c565b820191906000526020600020905b815481529060010190602001808311611aff57829003601f168201915b505050505081526020016002820160009054906101000a900460ff161515151581526020016002820160019054906101000a900460ff161515151581526020016002820160029054906101000a900460ff161515151581526020016003820154815250509050806000015181602001518260800151836040015184606001518560a00151965096509650965096509650509295509295509295565b60008054906101000a900473ffffffffffffffffffffffffffffffffffffffff1673ffffffffffffffffffffffffffffffffffffffff163373ffffffffffffffffffffffffffffffffffffffff1614611c45576040517f08c379a0000000000000000000000000000000000000000000000000000000008152600401611c3c90612d3c565b60405180910390fd5b60008383905011611c8b576040517f08c379a0000000000000000000000000000000000000000000000000000000008152600401611c8290612da8565b60405180910390fd5b600060038484604051611c9f929190612cb1565b90815260200160405180910390206000018054611cbb90612c50565b905014611cfd576040517f08c379a0000000000000000000000000000000000000000000000000000000008152600401611cf490613773565b60405180910390fd5b604051806080016040528084848080601f016020809104026020016040519081016040528093929190818152602001838380828437600081840152601f19601f8201169050808301925050505050505081526020016000151581526020016000151581526020018273ffffffffffffffffffffffffffffffffffffffff1681525060038484604051611d90929190612cb1565b90815260200160405180910390206000820151816000019081611db3919061348f565b5060208201518160010160006101000a81548160ff02191690831515021790555060408201518160010160016101000a81548160ff02191690831515021790555060608201518160010160026101000a81548173ffffffffffffffffffffffffffffffffffffffff021916908373ffffffffffffffffffffffffffffffffffffffff1602179055509050506004838390918060018154018082558091505060019003906000526020600020016000909192909192909192909192509182611e7b92919061356c565b508282604051611e8c929190612cb1565b60405180910390207f182b5a85503fb06b6c94e3f1d6b0f65bc9798ca9eb52d655d3aa414aefc2f35582604051611ec39190612c06565b60405180910390a2505050565b606060008060008060038787604051611eea929190612cb1565b9081526020016040518091039020604051806080016040529081600082018054611f1390612c50565b80601f0160208091040260200160405190810160405280929190818152602001828054611f3f90612c50565b8015611f8c5780601f10611f6157610100808354040283529160200191611f8c565b820191906000526020600020905b815481529060010190602001808311611f6f57829003601f168201915b505050505081526020016001820160009054906101000a900460ff161515151581526020016001820160019054906101000a900460ff161515151581526020016001820160029054906101000a900473ffffffffffffffffffffffffffffffffffffffff1673ffffffffffffffffffffffffffffffffffffffff1673ffffffffffffffffffffffffffffffffffffffff16815250509050806000015181602001518260400151836060015194509450945094505092959194509250565b60008054906101000a900473ffffffffffffffffffffffffffffffffffffffff1673ffffffffffffffffffffffffffffffffffffffff163373ffffffffffffffffffffffffffffffffffffffff16146120d7576040517f08c379a00000000000000000000000000000000000000000000000000000000081526004016120ce90612d3c565b60405180910390fd5b6000828290501161211d576040517f08c379a000000000000000000000000000000000000000000000000000000000815260040161211490612da8565b60405180910390fd5b600060038383604051612131929190612cb1565b9081526020016040518091039020600001805461214d90612c50565b90500361218f576040517f08c379a000000000000000000000000000000000000000000000000000000000815260040161218690612e14565b60405180910390fd5b600382826040516121a1929190612cb1565b908152602001604051809103902060010160009054906101000a900460ff1615612200576040517f08c379a00000000000000000000000000000000000000000000000000000000081526004016121f790612eec565b60405180910390fd5b60038282604051612212929190612cb1565b908152602001604051809103902060010160019054906101000a900460ff1615612271576040517f08c379a0000000000000000000000000000000000000000000000000000000008152600401612268906137df565b60405180910390fd5b600160038383604051612285929190612cb1565b908152602001604051809103902060010160016101000a81548160ff02191690831515021790555081816040516122bd929190612cb1565b60405180910390207f4711735689e8395b36d85c3931aa392b57542229b835c8c88a39ce1a69e7b55460405160405180910390a25050565b60008054906101000a900473ffffffffffffffffffffffffffffffffffffffff1681565b6000604051905090565b600080fd5b600080fd5b600080fd5b600080fd5b6000601f19601f8301169050919050565b7f4e487b7100000000000000000000000000000000000000000000000000000000600052604160045260246000fd5b61238082612337565b810181811067ffffffffffffffff8211171561239f5761239e612348565b5b80604052505050565b60006123b2612319565b90506123be8282612377565b919050565b600067ffffffffffffffff8211156123de576123dd612348565b5b6123e782612337565b9050602081019050919050565b82818337600083830152505050565b6000612416612411846123c3565b6123a8565b90508281526020810184848401111561243257612431612332565b5b61243d8482856123f4565b509392505050565b600082601f83011261245a5761245961232d565b5b813561246a848260208601612403565b91505092915050565b60006020828403121561248957612488612323565b5b600082013567ffffffffffffffff8111156124a7576124a6612328565b5b6124b384828501612445565b91505092915050565b600081519050919050565b600082825260208201905092915050565b60005b838110156124f65780820151818401526020810190506124db565b60008484015250505050565b600061250d826124bc565b61251781856124c7565b93506125278185602086016124d8565b61253081612337565b840191505092915050565b60008115159050919050565b6125508161253b565b82525050565b6000819050919050565b61256981612556565b82525050565b600060c08201905081810360008301526125898189612502565b9050818103602083015261259d8188612502565b90506125ac6040830187612547565b6125b96060830186612547565b6125c66080830185612547565b6125d360a0830184612560565b979650505050505050565b600073ffffffffffffffffffffffffffffffffffffffff82169050919050565b6000612609826125de565b9050919050565b612619816125fe565b82525050565b600060808201905081810360008301526126398187612502565b90506126486020830186612547565b6126556040830185612547565b6126626060830184612610565b95945050505050565b600080fd5b600080fd5b60008083601f84011261268b5761268a61232d565b5b8235905067ffffffffffffffff8111156126a8576126a761266b565b5b6020830191508360018202830111156126c4576126c3612670565b5b9250929050565b600080602083850312156126e2576126e1612323565b5b600083013567ffffffffffffffff811115612700576126ff612328565b5b61270c85828601612675565b92509250509250929050565b600060208201905061272d6000830184612547565b92915050565b600081519050919050565b600082825260208201905092915050565b6000819050602082019050919050565b600082825260208201905092915050565b600061277b826124bc565b612785818561275f565b93506127958185602086016124d8565b61279e81612337565b840191505092915050565b60006127b58383612770565b905092915050565b6000602082019050919050565b60006127d582612733565b6127df818561273e565b9350836020820285016127f18561274f565b8060005b8581101561282d578484038952815161280e85826127a9565b9450612819836127bd565b925060208a019950506001810190506127f5565b50829750879550505050505092915050565b600081519050919050565b600082825260208201905092915050565b6000819050602082019050919050565b6128748161253b565b82525050565b6000612886838361286b565b60208301905092915050565b6000602082019050919050565b60006128aa8261283f565b6128b4818561284a565b93506128bf8361285b565b8060005b838110156128f05781516128d7888261287a565b97506128e283612892565b9250506001810190506128c3565b5085935050505092915050565b600081519050919050565b600082825260208201905092915050565b6000819050602082019050919050565b612932816125fe565b82525050565b60006129448383612929565b60208301905092915050565b6000602082019050919050565b6000612968826128fd565b6129728185612908565b935061297d83612919565b8060005b838110156129ae5781516129958882612938565b97506129a083612950565b925050600181019050612981565b5085935050505092915050565b600060808201905081810360008301526129d581876127ca565b905081810360208301526129e9818661289f565b905081810360408301526129fd818561289f565b90508181036060830152612a11818461295d565b905095945050505050565b612a25816125fe565b8114612a3057600080fd5b50565b600081359050612a4281612a1c565b92915050565b612a5181612556565b8114612a5c57600080fd5b50565b600081359050612a6e81612a48565b92915050565b60008060408385031215612a8b57612a8a612323565b5b6000612a9985828601612a33565b9250506020612aaa85828601612a5f565b9150509250929050565b60006020820190508181036000830152612ace8184612502565b905092915050565b60008060008060408587031215612af057612aef612323565b5b600085013567ffffffffffffffff811115612b0e57612b0d612328565b5b612b1a87828801612675565b9450945050602085013567ffffffffffffffff811115612b3d57612b3c612328565b5b612b4987828801612675565b925092505092959194509250565b600060208284031215612b6d57612b6c612323565b5b6000612b7b84828501612a33565b91505092915050565b60006020820190508181036000830152612b9e81846127ca565b905092915050565b600080600060408486031215612bbf57612bbe612323565b5b600084013567ffffffffffffffff811115612bdd57612bdc612328565b5b612be986828701612675565b93509350506020612bfc86828701612a33565b9150509250925092565b6000602082019050612c1b6000830184612610565b92915050565b7f4e487b7100000000000000000000000000000000000000000000000000000000600052602260045260246000fd5b60006002820490506001821680612c6857607f821691505b602082108103612c7b57612c7a612c21565b5b50919050565b600081905092915050565b6000612c988385612c81565b9350612ca58385846123f4565b82840190509392505050565b6000612cbe828486612c8c565b91508190509392505050565b7f4f6e6c792061646d696e2063616e20706572666f726d2074686973206163746960008201527f6f6e000000000000000000000000000000000000000000000000000000000000602082015250565b6000612d266022836124c7565b9150612d3182612cca565b604082019050919050565b60006020820190508181036000830152612d5581612d19565b9050919050565b7f486173682063616e6e6f7420626520656d707479000000000000000000000000600082015250565b6000612d926014836124c7565b9150612d9d82612d5c565b602082019050919050565b60006020820190508181036000830152612dc181612d85565b9050919050565b7f536f66747761726520646f6573206e6f74206578697374000000000000000000600082015250565b6000612dfe6017836124c7565b9150612e0982612dc8565b602082019050919050565b60006020820190508181036000830152612e2d81612df1565b9050919050565b7f536f6674776172652069732072656a6563746564000000000000000000000000600082015250565b6000612e6a6014836124c7565b9150612e7582612e34565b602082019050919050565b60006020820190508181036000830152612e9981612e5d565b9050919050565b7f536f66747761726520616c726561647920617070726f76656400000000000000600082015250565b6000612ed66019836124c7565b9150612ee182612ea0565b602082019050919050565b60006020820190508181036000830152612f0581612ec9565b9050919050565b7f4c6963656e7365206b65792063616e6e6f7420626520656d7074790000000000600082015250565b6000612f42601b836124c7565b9150612f4d82612f0c565b602082019050919050565b60006020820190508181036000830152612f7181612f35565b9050919050565b7f4c6963656e736520646f6573206e6f7420657869737400000000000000000000600082015250565b6000612fae6016836124c7565b9150612fb982612f78565b602082019050919050565b60006020820190508181036000830152612fdd81612fa1565b9050919050565b7f4c6963656e736520616c72656164792074616d70657265640000000000000000600082015250565b600061301a6018836124c7565b915061302582612fe4565b602082019050919050565b600060208201905081810360008301526130498161300d565b9050919050565b7f4e487b7100000000000000000000000000000000000000000000000000000000600052603260045260246000fd5b600061308a826124bc565b6130948185612c81565b93506130a48185602086016124d8565b80840191505092915050565b60006130bc828461307f565b915081905092915050565b7f4c6963656e736520616c726561647920637261636b6564000000000000000000600082015250565b60006130fd6017836124c7565b9150613108826130c7565b602082019050919050565b6000602082019050818103600083015261312c816130f0565b9050919050565b7f536f667477617265206e616d652063616e6e6f7420626520656d707479000000600082015250565b6000613169601d836124c7565b915061317482613133565b602082019050919050565b600060208201905081810360008301526131988161315c565b9050919050565b7f4c6963656e736520616c72656164792065786973747300000000000000000000600082015250565b60006131d56016836124c7565b91506131e08261319f565b602082019050919050565b60006020820190508181036000830152613204816131c8565b9050919050565b7f536f667477617265206e6f742072656769737465726564000000000000000000600082015250565b60006132416017836124c7565b915061324c8261320b565b602082019050919050565b6000602082019050818103600083015261327081613234565b9050919050565b7f536f667477617265206e6f7420617070726f7665640000000000000000000000600082015250565b60006132ad6015836124c7565b91506132b882613277565b602082019050919050565b600060208201905081810360008301526132dc816132a0565b9050919050565b60008190508160005260206000209050919050565b60006020601f8301049050919050565b600082821b905092915050565b6000600883026133457fffffffffffffffffffffffffffffffffffffffffffffffffffffffffffffffff82613308565b61334f8683613308565b95508019841693508086168417925050509392505050565b6000819050919050565b600061338c61338761338284612556565b613367565b612556565b9050919050565b6000819050919050565b6133a683613371565b6133ba6133b282613393565b848454613315565b825550505050565b600090565b6133cf6133c2565b6133da81848461339d565b505050565b5b818110156133fe576133f36000826133c7565b6001810190506133e0565b5050565b601f82111561344357613414816132e3565b61341d846132f8565b8101602085101561342c578190505b613440613438856132f8565b8301826133df565b50505b505050565b600082821c905092915050565b600061346660001984600802613448565b1980831691505092915050565b600061347f8383613455565b9150826002028217905092915050565b613498826124bc565b67ffffffffffffffff8111156134b1576134b0612348565b5b6134bb8254612c50565b6134c6828285613402565b600060209050601f8311600181146134f957600084156134e7578287015190505b6134f18582613473565b865550613559565b601f198416613507866132e3565b60005b8281101561352f5784890151825560018201915060208501945060208101905061350a565b8683101561354c5784890151613548601f891682613455565b8355505b6001600288020188555050505b505050505050565b600082905092915050565b6135768383613561565b67ffffffffffffffff81111561358f5761358e612348565b5b6135998254612c50565b6135a4828285613402565b6000601f8311600181146135d357600084156135c1578287013590505b6135cb8582613473565b865550613633565b601f1984166135e1866132e3565b60005b82811015613609578489013582556001820191506020850194506020810190506135e4565b868310156136265784890135613622601f891682613455565b8355505b6001600288020188555050505b50505050505050565b600061364883856124c7565b93506136558385846123f4565b61365e83612337565b840190509392505050565b6000606082019050818103600083015261368481888a61363c565b9050818103602083015261369981868861363c565b905081810360408301526136ae81848661363c565b9050979650505050505050565b7f4e65772061646d696e2063616e6e6f74206265207a65726f2061646472657373600082015250565b60006136f16020836124c7565b91506136fc826136bb565b602082019050919050565b60006020820190508181036000830152613720816136e4565b9050919050565b7f536f66747761726520616c726561647920657869737473000000000000000000600082015250565b600061375d6017836124c7565b915061376882613727565b602082019050919050565b6000602082019050818103600083015261378c81613750565b9050919050565b7f536f66747761726520616c72656164792072656a656374656400000000000000600082015250565b60006137c96019836124c7565b91506137d482613793565b602082019050919050565b600060208201905081810360008301526137f8816137bc565b905091905056fea2646970667358221220af82566c5e57d84373a49f8a1683c5919f6826e3d63b190181b936386d9d676264736f6c634300081c0033",
  "linkReferences": {},
  "deployedLinkReferences": {}
}