{
  "_format": "hh-sol-artifact-1",
  "contractName": "LicenseManager",
  "sourceName": "contracts/licensemanager.sol",
  "abi": [
    {
      "anonymous": false,
      "inputs": [
        {
          "indexed": true,
          "internalType": "string",
          "name": "licenseKey",
          "type": "string"
        },
        {
          "indexed": true,
          "internalType": "address",
          "name": "reporter",
          "type": "address"
        }
      ],
      "name": "LicenseCracked",
      "type": "event"
    },
    {
      "anonymous": false,
      "inputs": [
        {
          "indexed": true,
          "internalType": "string",
          "name": "licenseKey",
          "type": "string"
        },
        {
          "indexed": true,
          "internalType": "address",
          "name": "owner",
          "type": "address"
        },
        {
          "indexed": false,
          "internalType": "string",
          "name": "softwareId",
          "type": "string"
        },
        {
          "indexed": false,
          "internalType": "uint256",
          "name": "version",
          "type": "uint256"
        }
      ],
      "name": "LicenseIssued",
      "type": "event"
    },
    {
      "anonymous": false,
      "inputs": [
        {
          "indexed": true,
          "internalType": "string",
          "name": "licenseKey",
          "type": "string"
        },
        {
          "indexed": true,
          "internalType": "address",
          "name": "reporter",
          "type": "address"
        }
      ],
      "name": "LicenseTampered",
      "type": "event"
    },
    {
      "anonymous": false,
      "inputs": [
        {
          "indexed": true,
          "internalType": "string",
          "name": "licenseKey",
          "type": "string"
        },
        {
          "indexed": false,
          "internalType": "bool",
          "name": "isValid",
          "type": "bool"
        }
      ],
      "name": "LicenseVerified",
      "type": "event"
    },
    {
      "inputs": [
        {
          "internalType": "string",
          "name": "_licenseKey",
          "type": "string"
        }
      ],
      "name": "getLicenseDetails",
      "outputs": [
        {
          "internalType": "address",
          "name": "owner",
          "type": "address"
        },
        {
          "internalType": "bool",
          "name": "isValid",
          "type": "bool"
        },
        {
          "internalType": "uint256",
          "name": "issuanceDate",
          "type": "uint256"
        },
        {
          "internalType": "string",
          "name": "softwareId",
          "type": "string"
        },
        {
          "internalType": "uint256",
          "name": "version",
          "type": "uint256"
        }
      ],
      "stateMutability": "view",
      "type": "function"
    },
    {
      "inputs": [
        {
          "internalType": "address",
          "name": "_user",
          "type": "address"
        }
      ],
      "name": "getUserLicenses",
      "outputs": [
        {
          "internalType": "string[]",
          "name": "",
          "type": "string[]"
        }
      ],
      "stateMutability": "view",
      "type": "function"
    },
    {
      "inputs": [
        {
          "internalType": "string",
          "name": "_licenseKey",
          "type": "string"
        }
      ],
      "name": "isAuthentic",
      "outputs": [
        {
          "internalType": "bool",
          "name": "",
          "type": "bool"
        }
      ],
      "stateMutability": "nonpayable",
      "type": "function"
    },
    {
      "inputs": [
        {
          "internalType": "string",
          "name": "_licenseKey",
          "type": "string"
        },
        {
          "internalType": "string",
          "name": "_softwareId",
          "type": "string"
        }
      ],
      "name": "issueLicense",
      "outputs": [],
      "stateMutability": "nonpayable",
      "type": "function"
    },
    {
      "inputs": [
        {
          "internalType": "string",
          "name": "",
          "type": "string"
        }
      ],
      "name": "licenses",
      "outputs": [
        {
          "internalType": "string",
          "name": "licenseKey",
          "type": "string"
        },
        {
          "internalType": "address",
          "name": "owner",
          "type": "address"
        },
        {
          "internalType": "bool",
          "name": "isValid",
          "type": "bool"
        },
        {
          "internalType": "uint256",
          "name": "issuanceDate",
          "type": "uint256"
        },
        {
          "internalType": "string",
          "name": "softwareId",
          "type": "string"
        },
        {
          "internalType": "uint256",
          "name": "version",
          "type": "uint256"
        }
      ],
      "stateMutability": "view",
      "type": "function"
    },
    {
      "inputs": [
        {
          "internalType": "string",
          "name": "_licenseKey",
          "type": "string"
        }
      ],
      "name": "reportCracked",
      "outputs": [],
      "stateMutability": "nonpayable",
      "type": "function"
    },
    {
      "inputs": [
        {
          "internalType": "string",
          "name": "_licenseKey",
          "type": "string"
        }
      ],
      "name": "reportTampered",
      "outputs": [],
      "stateMutability": "nonpayable",
      "type": "function"
    },
    {
      "inputs": [
        {
          "internalType": "address",
          "name": "",
          "type": "address"
        },
        {
          "internalType": "uint256",
          "name": "",
          "type": "uint256"
        }
      ],
      "name": "userLicenses",
      "outputs": [
        {
          "internalType": "string",
          "name": "",
          "type": "string"
        }
      ],
      "stateMutability": "view",
      "type": "function"
    }
  ],
  "bytecode": "0x6080604052348015600f57600080fd5b50611c788061001f6000396000f3fe608060405234801561001057600080fd5b50600436106100885760003560e01c806366661a311161005b57806366661a311461013e57806367c26ef31461015a57806375a106c314610176578063c131a2c9146101a657610088565b80630540dafd1461008d5780631c003077146100c25780632af58bf9146100f2578063454c1d311461010e575b600080fd5b6100a760048036038101906100a2919061118e565b6101da565b6040516100b9969594939291906112cb565b60405180910390f35b6100dc60048036038101906100d7919061118e565b610369565b6040516100e9919061133a565b60405180910390f35b61010c6004803603810190610107919061118e565b6105b1565b005b610128600480360381019061012391906113ad565b610723565b60405161013591906113ed565b60405180910390f35b6101586004803603810190610153919061118e565b6107dc565b005b610174600480360381019061016f919061140f565b61094e565b005b610190600480360381019061018b9190611487565b610cc9565b60405161019d91906115c0565b60405180910390f35b6101c060048036038101906101bb919061118e565b610de1565b6040516101d19594939291906115e2565b60405180910390f35b6000818051602081018201805184825260208301602085012081835280955050505050506000915090508060000180546102139061166b565b80601f016020809104026020016040519081016040528092919081815260200182805461023f9061166b565b801561028c5780601f106102615761010080835404028352916020019161028c565b820191906000526020600020905b81548152906001019060200180831161026f57829003601f168201915b5050505050908060010160009054906101000a900473ffffffffffffffffffffffffffffffffffffffff16908060010160149054906101000a900460ff16908060020154908060030180546102e09061166b565b80601f016020809104026020016040519081016040528092919081815260200182805461030c9061166b565b80156103595780601f1061032e57610100808354040283529160200191610359565b820191906000526020600020905b81548152906001019060200180831161033c57829003601f168201915b5050505050908060040154905086565b60008060008360405161037c91906116d8565b90815260200160405180910390206040518060c00160405290816000820180546103a59061166b565b80601f01602080910402602001604051908101604052809291908181526020018280546103d19061166b565b801561041e5780601f106103f35761010080835404028352916020019161041e565b820191906000526020600020905b81548152906001019060200180831161040157829003601f168201915b505050505081526020016001820160009054906101000a900473ffffffffffffffffffffffffffffffffffffffff1673ffffffffffffffffffffffffffffffffffffffff1673ffffffffffffffffffffffffffffffffffffffff1681526020016001820160149054906101000a900460ff16151515158152602001600282015481526020016003820180546104b29061166b565b80601f01602080910402602001604051908101604052809291908181526020018280546104de9061166b565b801561052b5780601f106105005761010080835404028352916020019161052b565b820191906000526020600020905b81548152906001019060200180831161050e57829003601f168201915b50505050508152602001600482015481525050905060008082600001515114158015610558575081604001515b90508360405161056891906116d8565b60405180910390207f73662712a7077bb8f1eb837d5a934064303c415b1adeb7180b00eef3fd09170e8260405161059f919061133a565b60405180910390a28092505050919050565b600080826040516105c291906116d8565b908152602001604051809103902060000180546105de9061166b565b905003610620576040517f08c379a00000000000000000000000000000000000000000000000000000000081526004016106179061173b565b60405180910390fd5b60008160405161063091906116d8565b908152602001604051809103902060010160149054906101000a900460ff1661068e576040517f08c379a0000000000000000000000000000000000000000000000000000000008152600401610685906117a7565b60405180910390fd5b6000808260405161069f91906116d8565b908152602001604051809103902060010160146101000a81548160ff0219169083151502179055503373ffffffffffffffffffffffffffffffffffffffff16816040516106ec91906116d8565b60405180910390207fd135e5ec6fdcbcf982af5e6fe7a390999dfba9829762f3c6d77df17ce5a958c760405160405180910390a350565b6001602052816000526040600020818154811061073f57600080fd5b9060005260206000200160009150915050805461075b9061166b565b80601f01602080910402602001604051908101604052809291908181526020018280546107879061166b565b80156107d45780601f106107a9576101008083540402835291602001916107d4565b820191906000526020600020905b8154815290600101906020018083116107b757829003601f168201915b505050505081565b600080826040516107ed91906116d8565b908152602001604051809103902060000180546108099061166b565b90500361084b576040517f08c379a00000000000000000000000000000000000000000000000000000000081526004016108429061173b565b60405180910390fd5b60008160405161085b91906116d8565b908152602001604051809103902060010160149054906101000a900460ff166108b9576040517f08c379a00000000000000000000000000000000000000000000000000000000081526004016108b0906117a7565b60405180910390fd5b600080826040516108ca91906116d8565b908152602001604051809103902060010160146101000a81548160ff0219169083151502179055503373ffffffffffffffffffffffffffffffffffffffff168160405161091791906116d8565b60405180910390207f23c663a264db9efe4a2619e5eae301b37626dbf125b35fe4a3850f23d30ea98360405160405180910390a350565b6000825111610992576040517f08c379a000000000000000000000000000000000000000000000000000000000815260040161098990611813565b60405180910390fd5b600080836040516109a391906116d8565b9081526020016040518091039020905060008160000180546109c49061166b565b905003610b51576040518060c001604052808481526020013373ffffffffffffffffffffffffffffffffffffffff1681526020016001151581526020014281526020018381526020016001815250600084604051610a2291906116d8565b90815260200160405180910390206000820151816000019081610a4591906119df565b5060208201518160010160006101000a81548173ffffffffffffffffffffffffffffffffffffffff021916908373ffffffffffffffffffffffffffffffffffffffff16021790555060408201518160010160146101000a81548160ff021916908315150217905550606082015181600201556080820151816003019081610acc91906119df565b5060a08201518160040155905050600160003373ffffffffffffffffffffffffffffffffffffffff1673ffffffffffffffffffffffffffffffffffffffff16815260200190815260200160002083908060018154018082558091505060019003906000526020600020016000909190919091509081610b4b91906119df565b50610c5a565b3373ffffffffffffffffffffffffffffffffffffffff168160010160009054906101000a900473ffffffffffffffffffffffffffffffffffffffff1673ffffffffffffffffffffffffffffffffffffffff1614610be3576040517f08c379a0000000000000000000000000000000000000000000000000000000008152600401610bda90611b23565b60405180910390fd5b8060010160149054906101000a900460ff16610c34576040517f08c379a0000000000000000000000000000000000000000000000000000000008152600401610c2b90611b8f565b60405180910390fd5b6001816004016000828254610c499190611bde565b925050819055504281600201819055505b3373ffffffffffffffffffffffffffffffffffffffff1683604051610c7f91906116d8565b60405180910390207f3d278fc17e1ff0bb8303c66b7431c733a78ac177fe6c9b01e1adc4ff00fadb77848460040154604051610cbc929190611c12565b60405180910390a3505050565b6060600160008373ffffffffffffffffffffffffffffffffffffffff1673ffffffffffffffffffffffffffffffffffffffff168152602001908152602001600020805480602002602001604051908101604052809291908181526020016000905b82821015610dd6578382906000526020600020018054610d499061166b565b80601f0160208091040260200160405190810160405280929190818152602001828054610d759061166b565b8015610dc25780601f10610d9757610100808354040283529160200191610dc2565b820191906000526020600020905b815481529060010190602001808311610da557829003601f168201915b505050505081526020019060010190610d2a565b505050509050919050565b60008060006060600080600087604051610dfb91906116d8565b90815260200160405180910390206040518060c0016040529081600082018054610e249061166b565b80601f0160208091040260200160405190810160405280929190818152602001828054610e509061166b565b8015610e9d5780601f10610e7257610100808354040283529160200191610e9d565b820191906000526020600020905b815481529060010190602001808311610e8057829003601f168201915b505050505081526020016001820160009054906101000a900473ffffffffffffffffffffffffffffffffffffffff1673ffffffffffffffffffffffffffffffffffffffff1673ffffffffffffffffffffffffffffffffffffffff1681526020016001820160149054906101000a900460ff1615151515815260200160028201548152602001600382018054610f319061166b565b80601f0160208091040260200160405190810160405280929190818152602001828054610f5d9061166b565b8015610faa5780601f10610f7f57610100808354040283529160200191610faa565b820191906000526020600020905b815481529060010190602001808311610f8d57829003601f168201915b505050505081526020016004820154815250509050600081600001515103611007576040517f08c379a0000000000000000000000000000000000000000000000000000000008152600401610ffe9061173b565b60405180910390fd5b80602001518160400151826060015183608001518460a00151955095509550955095505091939590929450565b6000604051905090565b600080fd5b600080fd5b600080fd5b600080fd5b6000601f19601f8301169050919050565b7f4e487b7100000000000000000000000000000000000000000000000000000000600052604160045260246000fd5b61109b82611052565b810181811067ffffffffffffffff821117156110ba576110b9611063565b5b80604052505050565b60006110cd611034565b90506110d98282611092565b919050565b600067ffffffffffffffff8211156110f9576110f8611063565b5b61110282611052565b9050602081019050919050565b82818337600083830152505050565b600061113161112c846110de565b6110c3565b90508281526020810184848401111561114d5761114c61104d565b5b61115884828561110f565b509392505050565b600082601f83011261117557611174611048565b5b813561118584826020860161111e565b91505092915050565b6000602082840312156111a4576111a361103e565b5b600082013567ffffffffffffffff8111156111c2576111c1611043565b5b6111ce84828501611160565b91505092915050565b600081519050919050565b600082825260208201905092915050565b60005b838110156112115780820151818401526020810190506111f6565b60008484015250505050565b6000611228826111d7565b61123281856111e2565b93506112428185602086016111f3565b61124b81611052565b840191505092915050565b600073ffffffffffffffffffffffffffffffffffffffff82169050919050565b600061128182611256565b9050919050565b61129181611276565b82525050565b60008115159050919050565b6112ac81611297565b82525050565b6000819050919050565b6112c5816112b2565b82525050565b600060c08201905081810360008301526112e5818961121d565b90506112f46020830188611288565b61130160408301876112a3565b61130e60608301866112bc565b8181036080830152611320818561121d565b905061132f60a08301846112bc565b979650505050505050565b600060208201905061134f60008301846112a3565b92915050565b61135e81611276565b811461136957600080fd5b50565b60008135905061137b81611355565b92915050565b61138a816112b2565b811461139557600080fd5b50565b6000813590506113a781611381565b92915050565b600080604083850312156113c4576113c361103e565b5b60006113d28582860161136c565b92505060206113e385828601611398565b9150509250929050565b60006020820190508181036000830152611407818461121d565b905092915050565b600080604083850312156114265761142561103e565b5b600083013567ffffffffffffffff81111561144457611443611043565b5b61145085828601611160565b925050602083013567ffffffffffffffff81111561147157611470611043565b5b61147d85828601611160565b9150509250929050565b60006020828403121561149d5761149c61103e565b5b60006114ab8482850161136c565b91505092915050565b600081519050919050565b600082825260208201905092915050565b6000819050602082019050919050565b600082825260208201905092915050565b60006114fc826111d7565b61150681856114e0565b93506115168185602086016111f3565b61151f81611052565b840191505092915050565b600061153683836114f1565b905092915050565b6000602082019050919050565b6000611556826114b4565b61156081856114bf565b935083602082028501611572856114d0565b8060005b858110156115ae578484038952815161158f858261152a565b945061159a8361153e565b925060208a01995050600181019050611576565b50829750879550505050505092915050565b600060208201905081810360008301526115da818461154b565b905092915050565b600060a0820190506115f76000830188611288565b61160460208301876112a3565b61161160408301866112bc565b8181036060830152611623818561121d565b905061163260808301846112bc565b9695505050505050565b7f4e487b7100000000000000000000000000000000000000000000000000000000600052602260045260246000fd5b6000600282049050600182168061168357607f821691505b6020821081036116965761169561163c565b5b50919050565b600081905092915050565b60006116b2826111d7565b6116bc818561169c565b93506116cc8185602086016111f3565b80840191505092915050565b60006116e482846116a7565b915081905092915050565b7f4c6963656e736520646f6573206e6f7420657869737400000000000000000000600082015250565b60006117256016836111e2565b9150611730826116ef565b602082019050919050565b6000602082019050818103600083015261175481611718565b9050919050565b7f4c6963656e736520697320616c726561647920696e76616c6964000000000000600082015250565b6000611791601a836111e2565b915061179c8261175b565b602082019050919050565b600060208201905081810360008301526117c081611784565b9050919050565b7f4c6963656e7365206b65792063616e6e6f7420626520656d7074790000000000600082015250565b60006117fd601b836111e2565b9150611808826117c7565b602082019050919050565b6000602082019050818103600083015261182c816117f0565b9050919050565b60008190508160005260206000209050919050565b60006020601f8301049050919050565b600082821b905092915050565b6000600883026118957fffffffffffffffffffffffffffffffffffffffffffffffffffffffffffffffff82611858565b61189f8683611858565b95508019841693508086168417925050509392505050565b6000819050919050565b60006118dc6118d76118d2846112b2565b6118b7565b6112b2565b9050919050565b6000819050919050565b6118f6836118c1565b61190a611902826118e3565b848454611865565b825550505050565b600090565b61191f611912565b61192a8184846118ed565b505050565b5b8181101561194e57611943600082611917565b600181019050611930565b5050565b601f8211156119935761196481611833565b61196d84611848565b8101602085101561197c578190505b61199061198885611848565b83018261192f565b50505b505050565b600082821c905092915050565b60006119b660001984600802611998565b1980831691505092915050565b60006119cf83836119a5565b9150826002028217905092915050565b6119e8826111d7565b67ffffffffffffffff811115611a0157611a00611063565b5b611a0b825461166b565b611a16828285611952565b600060209050601f831160018114611a495760008415611a37578287015190505b611a4185826119c3565b865550611aa9565b601f198416611a5786611833565b60005b82811015611a7f57848901518255600182019150602085019450602081019050611a5a565b86831015611a9c5784890151611a98601f8916826119a5565b8355505b6001600288020188555050505b505050505050565b7f4f6e6c7920746865206f726967696e616c206f776e65722063616e207570646160008201527f74652074686973206c6963656e73650000000000000000000000000000000000602082015250565b6000611b0d602f836111e2565b9150611b1882611ab1565b604082019050919050565b60006020820190508181036000830152611b3c81611b00565b9050919050565b7f43616e6e6f742075706461746520616e20696e76616c6964206c6963656e7365600082015250565b6000611b796020836111e2565b9150611b8482611b43565b602082019050919050565b60006020820190508181036000830152611ba881611b6c565b9050919050565b7f4e487b7100000000000000000000000000000000000000000000000000000000600052601160045260246000fd5b6000611be9826112b2565b9150611bf4836112b2565b9250828201905080821115611c0c57611c0b611baf565b5b92915050565b60006040820190508181036000830152611c2c818561121d565b9050611c3b60208301846112bc565b939250505056fea26469706673582212207ca65591192b0770de165a7fea00a8ce9972e8120a5c419b529f1c04ecc5f21c64736f6c634300081c0033",
  "linkReferences": {},
  "deployedLinkReferences": {}
}