{
  "_format": "hh-sol-artifact-1",
  "contractName": "LicenseManager",
  "sourceName": "contracts/licensemanager.sol",
  "abi": [
    {
      "inputs": [],
      "stateMutability": "nonpayable",
      "type": "constructor"
    },
    {
      "anonymous": false,
      "inputs": [
        {
          "indexed": false,
          "internalType": "string",
          "name": "licenseKey",
          "type": "string"
        },
        {
          "indexed": false,
          "internalType": "address",
          "name": "reporter",
          "type": "address"
        }
      ],
      "name": "LicenseCracked",
      "type": "event"
    },
    {
      "anonymous": false,
      "inputs": [
        {
          "indexed": true,
          "internalType": "address",
          "name": "user",
          "type": "address"
        },
        {
          "indexed": false,
          "internalType": "string",
          "name": "licenseKey",
          "type": "string"
        },
        {
          "indexed": false,
          "internalType": "string",
          "name": "softwareName",
          "type": "string"
        }
      ],
      "name": "LicenseIssued",
      "type": "event"
    },
    {
      "anonymous": false,
      "inputs": [
        {
          "indexed": false,
          "internalType": "string",
          "name": "licenseKey",
          "type": "string"
        },
        {
          "indexed": false,
          "internalType": "address",
          "name": "reporter",
          "type": "address"
        }
      ],
      "name": "LicenseTampered",
      "type": "event"
    },
    {
      "anonymous": false,
      "inputs": [
        {
          "indexed": true,
          "internalType": "address",
          "name": "user",
          "type": "address"
        }
      ],
      "name": "UserApproved",
      "type": "event"
    },
    {
      "anonymous": false,
      "inputs": [
        {
          "indexed": true,
          "internalType": "address",
          "name": "user",
          "type": "address"
        }
      ],
      "name": "UserRegistered",
      "type": "event"
    },
    {
      "anonymous": false,
      "inputs": [
        {
          "indexed": true,
          "internalType": "address",
          "name": "user",
          "type": "address"
        },
        {
          "indexed": false,
          "internalType": "string",
          "name": "reason",
          "type": "string"
        }
      ],
      "name": "UserRejected",
      "type": "event"
    },
    {
      "inputs": [],
      "name": "admin",
      "outputs": [
        {
          "internalType": "address",
          "name": "",
          "type": "address"
        }
      ],
      "stateMutability": "view",
      "type": "function"
    },
    {
      "inputs": [
        {
          "internalType": "address",
          "name": "user",
          "type": "address"
        }
      ],
      "name": "approveUser",
      "outputs": [],
      "stateMutability": "nonpayable",
      "type": "function"
    },
    {
      "inputs": [
        {
          "internalType": "string",
          "name": "licenseKey",
          "type": "string"
        }
      ],
      "name": "getLicenseDetails",
      "outputs": [
        {
          "internalType": "string",
          "name": "softwareName",
          "type": "string"
        },
        {
          "internalType": "bool",
          "name": "exists",
          "type": "bool"
        },
        {
          "internalType": "bool",
          "name": "isTampered",
          "type": "bool"
        },
        {
          "internalType": "bool",
          "name": "isCracked",
          "type": "bool"
        }
      ],
      "stateMutability": "view",
      "type": "function"
    },
    {
      "inputs": [
        {
          "internalType": "address",
          "name": "user",
          "type": "address"
        }
      ],
      "name": "getUserLicenses",
      "outputs": [
        {
          "internalType": "string[]",
          "name": "",
          "type": "string[]"
        }
      ],
      "stateMutability": "view",
      "type": "function"
    },
    {
      "inputs": [
        {
          "internalType": "address",
          "name": "user",
          "type": "address"
        }
      ],
      "name": "getUserStatus",
      "outputs": [
        {
          "internalType": "bool",
          "name": "isRegistered",
          "type": "bool"
        },
        {
          "internalType": "bool",
          "name": "isApproved",
          "type": "bool"
        },
        {
          "internalType": "bool",
          "name": "isRejected",
          "type": "bool"
        },
        {
          "internalType": "string",
          "name": "rejectionReason",
          "type": "string"
        }
      ],
      "stateMutability": "view",
      "type": "function"
    },
    {
      "inputs": [
        {
          "internalType": "string",
          "name": "licenseKey",
          "type": "string"
        }
      ],
      "name": "isAuthentic",
      "outputs": [
        {
          "internalType": "bool",
          "name": "",
          "type": "bool"
        }
      ],
      "stateMutability": "view",
      "type": "function"
    },
    {
      "inputs": [
        {
          "internalType": "string",
          "name": "licenseKey",
          "type": "string"
        },
        {
          "internalType": "string",
          "name": "softwareName",
          "type": "string"
        }
      ],
      "name": "issueLicense",
      "outputs": [],
      "stateMutability": "nonpayable",
      "type": "function"
    },
    {
      "inputs": [
        {
          "internalType": "string",
          "name": "",
          "type": "string"
        }
      ],
      "name": "licenses",
      "outputs": [
        {
          "internalType": "string",
          "name": "softwareName",
          "type": "string"
        },
        {
          "internalType": "bool",
          "name": "exists",
          "type": "bool"
        },
        {
          "internalType": "bool",
          "name": "isTampered",
          "type": "bool"
        },
        {
          "internalType": "bool",
          "name": "isCracked",
          "type": "bool"
        }
      ],
      "stateMutability": "view",
      "type": "function"
    },
    {
      "inputs": [],
      "name": "registerUser",
      "outputs": [],
      "stateMutability": "nonpayable",
      "type": "function"
    },
    {
      "inputs": [
        {
          "internalType": "address",
          "name": "user",
          "type": "address"
        },
        {
          "internalType": "string",
          "name": "reason",
          "type": "string"
        }
      ],
      "name": "rejectUser",
      "outputs": [],
      "stateMutability": "nonpayable",
      "type": "function"
    },
    {
      "inputs": [
        {
          "internalType": "string",
          "name": "licenseKey",
          "type": "string"
        }
      ],
      "name": "reportCracked",
      "outputs": [],
      "stateMutability": "nonpayable",
      "type": "function"
    },
    {
      "inputs": [
        {
          "internalType": "string",
          "name": "licenseKey",
          "type": "string"
        }
      ],
      "name": "reportTampered",
      "outputs": [],
      "stateMutability": "nonpayable",
      "type": "function"
    },
    {
      "inputs": [
        {
          "internalType": "address",
          "name": "",
          "type": "address"
        },
        {
          "internalType": "uint256",
          "name": "",
          "type": "uint256"
        }
      ],
      "name": "userLicenses",
      "outputs": [
        {
          "internalType": "string",
          "name": "",
          "type": "string"
        }
      ],
      "stateMutability": "view",
      "type": "function"
    },
    {
      "inputs": [
        {
          "internalType": "address",
          "name": "",
          "type": "address"
        }
      ],
      "name": "users",
      "outputs": [
        {
          "internalType": "bool",
          "name": "isRegistered",
          "type": "bool"
        },
        {
          "internalType": "bool",
          "name": "isApproved",
          "type": "bool"
        },
        {
          "internalType": "bool",
          "name": "isRejected",
          "type": "bool"
        },
        {
          "internalType": "string",
          "name": "rejectionReason",
          "type": "string"
        }
      ],
      "stateMutability": "view",
      "type": "function"
    }
  ],
  "bytecode": "0x608060405234801561001057600080fd5b50336000806101000a81548173ffffffffffffffffffffffffffffffffffffffff021916908373ffffffffffffffffffffffffffffffffffffffff160217905550604051806080016040528060011515815260200160011515815260200160001515815260200160405180602001604052806000815250815250600160008060009054906101000a900473ffffffffffffffffffffffffffffffffffffffff1673ffffffffffffffffffffffffffffffffffffffff1673ffffffffffffffffffffffffffffffffffffffff16815260200190815260200160002060008201518160000160006101000a81548160ff02191690831515021790555060208201518160000160016101000a81548160ff02191690831515021790555060408201518160000160026101000a81548160ff021916908315150217905550606082015181600101908161015f91906103b8565b5090505061048a565b600081519050919050565b7f4e487b7100000000000000000000000000000000000000000000000000000000600052604160045260246000fd5b7f4e487b7100000000000000000000000000000000000000000000000000000000600052602260045260246000fd5b600060028204905060018216806101e957607f821691505b6020821081036101fc576101fb6101a2565b5b50919050565b60008190508160005260206000209050919050565b60006020601f8301049050919050565b600082821b905092915050565b6000600883026102647fffffffffffffffffffffffffffffffffffffffffffffffffffffffffffffffff82610227565b61026e8683610227565b95508019841693508086168417925050509392505050565b6000819050919050565b6000819050919050565b60006102b56102b06102ab84610286565b610290565b610286565b9050919050565b6000819050919050565b6102cf8361029a565b6102e36102db826102bc565b848454610234565b825550505050565b600090565b6102f86102eb565b6103038184846102c6565b505050565b5b818110156103275761031c6000826102f0565b600181019050610309565b5050565b601f82111561036c5761033d81610202565b61034684610217565b81016020851015610355578190505b61036961036185610217565b830182610308565b50505b505050565b600082821c905092915050565b600061038f60001984600802610371565b1980831691505092915050565b60006103a8838361037e565b9150826002028217905092915050565b6103c182610168565b67ffffffffffffffff8111156103da576103d9610173565b5b6103e482546101d1565b6103ef82828561032b565b600060209050601f8311600181146104225760008415610410578287015190505b61041a858261039c565b865550610482565b601f19841661043086610202565b60005b8281101561045857848901518255600182019150602085019450602081019050610433565b868310156104755784890151610471601f89168261037e565b8355505b6001600288020188555050505b505050505050565b612949806104996000396000f3fe608060405234801561001057600080fd5b50600436106100ea5760003560e01c806375a106c31161008c578063c131a2c911610066578063c131a2c91461025f578063d624fdb614610292578063ea0d5dcd146102ae578063f851a440146102e1576100ea565b806375a106c3146101e0578063a87430ba14610210578063afd722db14610243576100ea565b8063454c1d31116100c8578063454c1d311461016e5780634d3820eb1461019e57806366661a31146101a857806367c26ef3146101c4576100ea565b80630540dafd146100ef5780631c003077146101225780632af58bf914610152575b600080fd5b61010960048036038101906101049190611a56565b6102ff565b6040516101199493929190611b39565b60405180910390f35b61013c60048036038101906101379190611be5565b6103f4565b6040516101499190611c32565b60405180910390f35b61016c60048036038101906101679190611be5565b610531565b005b61018860048036038101906101839190611ce1565b6106ab565b6040516101959190611d21565b60405180910390f35b6101a6610764565b005b6101c260048036038101906101bd9190611be5565b61092a565b005b6101de60048036038101906101d99190611d43565b610b15565b005b6101fa60048036038101906101f59190611dc4565b610df1565b6040516102079190611efd565b60405180910390f35b61022a60048036038101906102259190611dc4565b610f09565b60405161023a9493929190611f1f565b60405180910390f35b61025d60048036038101906102589190611f6b565b610fe8565b005b61027960048036038101906102749190611be5565b611337565b6040516102899493929190611b39565b60405180910390f35b6102ac60048036038101906102a79190611dc4565b611475565b005b6102c860048036038101906102c39190611dc4565b61177c565b6040516102d89493929190611f1f565b60405180910390f35b6102e96118d8565b6040516102f69190611fda565b60405180910390f35b60038180516020810182018051848252602083016020850120818352809550505050505060009150905080600001805461033890612024565b80601f016020809104026020016040519081016040528092919081815260200182805461036490612024565b80156103b15780601f10610386576101008083540402835291602001916103b1565b820191906000526020600020905b81548152906001019060200180831161039457829003601f168201915b5050505050908060010160009054906101000a900460ff16908060010160019054906101000a900460ff16908060010160029054906101000a900460ff16905084565b60008060038484604051610409929190612085565b908152602001604051809103902060405180608001604052908160008201805461043290612024565b80601f016020809104026020016040519081016040528092919081815260200182805461045e90612024565b80156104ab5780601f10610480576101008083540402835291602001916104ab565b820191906000526020600020905b81548152906001019060200180831161048e57829003601f168201915b505050505081526020016001820160009054906101000a900460ff161515151581526020016001820160019054906101000a900460ff161515151581526020016001820160029054906101000a900460ff16151515158152505090508060200151801561051a57508060400151155b801561052857508060600151155b91505092915050565b600160003373ffffffffffffffffffffffffffffffffffffffff1673ffffffffffffffffffffffffffffffffffffffff16815260200190815260200160002060000160019054906101000a900460ff166105c0576040517f08c379a00000000000000000000000000000000000000000000000000000000081526004016105b7906120ea565b60405180910390fd5b600382826040516105d2929190612085565b908152602001604051809103902060010160009054906101000a900460ff16610630576040517f08c379a000000000000000000000000000000000000000000000000000000000815260040161062790612156565b60405180910390fd5b600160038383604051610644929190612085565b908152602001604051809103902060010160016101000a81548160ff0219169083151502179055507fd135e5ec6fdcbcf982af5e6fe7a390999dfba9829762f3c6d77df17ce5a958c782823360405161069f939291906121a3565b60405180910390a15050565b600260205281600052604060002081815481106106c757600080fd5b906000526020600020016000915091505080546106e390612024565b80601f016020809104026020016040519081016040528092919081815260200182805461070f90612024565b801561075c5780601f106107315761010080835404028352916020019161075c565b820191906000526020600020905b81548152906001019060200180831161073f57829003601f168201915b505050505081565b600160003373ffffffffffffffffffffffffffffffffffffffff1673ffffffffffffffffffffffffffffffffffffffff16815260200190815260200160002060000160009054906101000a900460ff16156107f4576040517f08c379a00000000000000000000000000000000000000000000000000000000081526004016107eb90612221565b60405180910390fd5b604051806080016040528060011515815260200160001515815260200160001515815260200160405180602001604052806000815250815250600160003373ffffffffffffffffffffffffffffffffffffffff1673ffffffffffffffffffffffffffffffffffffffff16815260200190815260200160002060008201518160000160006101000a81548160ff02191690831515021790555060208201518160000160016101000a81548160ff02191690831515021790555060408201518160000160026101000a81548160ff02191690831515021790555060608201518160010190816108e191906123ed565b509050503373ffffffffffffffffffffffffffffffffffffffff167f54db7a5cb4735e1aac1f53db512d3390390bb6637bd30ad4bf9fc98667d9b9b960405160405180910390a2565b600160003373ffffffffffffffffffffffffffffffffffffffff1673ffffffffffffffffffffffffffffffffffffffff16815260200190815260200160002060000160019054906101000a900460ff166109b9576040517f08c379a00000000000000000000000000000000000000000000000000000000081526004016109b0906120ea565b60405180910390fd5b600382826040516109cb929190612085565b908152602001604051809103902060010160009054906101000a900460ff16610a29576040517f08c379a0000000000000000000000000000000000000000000000000000000008152600401610a2090612156565b60405180910390fd5b60038282604051610a3b929190612085565b908152602001604051809103902060010160029054906101000a900460ff1615610a9a576040517f08c379a0000000000000000000000000000000000000000000000000000000008152600401610a919061250b565b60405180910390fd5b600160038383604051610aae929190612085565b908152602001604051809103902060010160026101000a81548160ff0219169083151502179055507f23c663a264db9efe4a2619e5eae301b37626dbf125b35fe4a3850f23d30ea983828233604051610b09939291906121a3565b60405180910390a15050565b600160003373ffffffffffffffffffffffffffffffffffffffff1673ffffffffffffffffffffffffffffffffffffffff16815260200190815260200160002060000160019054906101000a900460ff16610ba4576040517f08c379a0000000000000000000000000000000000000000000000000000000008152600401610b9b906120ea565b60405180910390fd5b60038484604051610bb6929190612085565b908152602001604051809103902060010160009054906101000a900460ff1615610c15576040517f08c379a0000000000000000000000000000000000000000000000000000000008152600401610c0c90612577565b60405180910390fd5b604051806080016040528083838080601f016020809104026020016040519081016040528093929190818152602001838380828437600081840152601f19601f8201169050808301925050505050505081526020016001151581526020016000151581526020016000151581525060038585604051610c95929190612085565b90815260200160405180910390206000820151816000019081610cb891906123ed565b5060208201518160010160006101000a81548160ff02191690831515021790555060408201518160010160016101000a81548160ff02191690831515021790555060608201518160010160026101000a81548160ff021916908315150217905550905050600260003373ffffffffffffffffffffffffffffffffffffffff1673ffffffffffffffffffffffffffffffffffffffff168152602001908152602001600020848490918060018154018082558091505060019003906000526020600020016000909192909192909192909192509182610d969291906125a2565b503373ffffffffffffffffffffffffffffffffffffffff167fe28ba61a04e35848eeaf812287ea3b908fac39b64055f8f2b3d66eb9d8c8d18d85858585604051610de39493929190612672565b60405180910390a250505050565b6060600260008373ffffffffffffffffffffffffffffffffffffffff1673ffffffffffffffffffffffffffffffffffffffff168152602001908152602001600020805480602002602001604051908101604052809291908181526020016000905b82821015610efe578382906000526020600020018054610e7190612024565b80601f0160208091040260200160405190810160405280929190818152602001828054610e9d90612024565b8015610eea5780601f10610ebf57610100808354040283529160200191610eea565b820191906000526020600020905b815481529060010190602001808311610ecd57829003601f168201915b505050505081526020019060010190610e52565b505050509050919050565b60016020528060005260406000206000915090508060000160009054906101000a900460ff16908060000160019054906101000a900460ff16908060000160029054906101000a900460ff1690806001018054610f6590612024565b80601f0160208091040260200160405190810160405280929190818152602001828054610f9190612024565b8015610fde5780601f10610fb357610100808354040283529160200191610fde565b820191906000526020600020905b815481529060010190602001808311610fc157829003601f168201915b5050505050905084565b60008054906101000a900473ffffffffffffffffffffffffffffffffffffffff1673ffffffffffffffffffffffffffffffffffffffff163373ffffffffffffffffffffffffffffffffffffffff1614611076576040517f08c379a000000000000000000000000000000000000000000000000000000000815260040161106d9061271f565b60405180910390fd5b600160008473ffffffffffffffffffffffffffffffffffffffff1673ffffffffffffffffffffffffffffffffffffffff16815260200190815260200160002060000160009054906101000a900460ff16611105576040517f08c379a00000000000000000000000000000000000000000000000000000000081526004016110fc9061278b565b60405180910390fd5b600160008473ffffffffffffffffffffffffffffffffffffffff1673ffffffffffffffffffffffffffffffffffffffff16815260200190815260200160002060000160029054906101000a900460ff1615611195576040517f08c379a000000000000000000000000000000000000000000000000000000000815260040161118c906127f7565b60405180910390fd5b600082829050116111db576040517f08c379a00000000000000000000000000000000000000000000000000000000081526004016111d290612863565b60405180910390fd5b6000600160008573ffffffffffffffffffffffffffffffffffffffff1673ffffffffffffffffffffffffffffffffffffffff16815260200190815260200160002060000160016101000a81548160ff02191690831515021790555060018060008573ffffffffffffffffffffffffffffffffffffffff1673ffffffffffffffffffffffffffffffffffffffff16815260200190815260200160002060000160026101000a81548160ff0219169083151502179055508181600160008673ffffffffffffffffffffffffffffffffffffffff1673ffffffffffffffffffffffffffffffffffffffff16815260200190815260200160002060010191826112e19291906125a2565b508273ffffffffffffffffffffffffffffffffffffffff167f4f74620073f80a4eae99d6ea3c96ab5c1c4cac447a8f5ebe63ec857e9b63df87838360405161132a929190612883565b60405180910390a2505050565b606060008060008060038787604051611351929190612085565b908152602001604051809103902060405180608001604052908160008201805461137a90612024565b80601f01602080910402602001604051908101604052809291908181526020018280546113a690612024565b80156113f35780601f106113c8576101008083540402835291602001916113f3565b820191906000526020600020905b8154815290600101906020018083116113d657829003601f168201915b505050505081526020016001820160009054906101000a900460ff161515151581526020016001820160019054906101000a900460ff161515151581526020016001820160029054906101000a900460ff1615151515815250509050806000015181602001518260400151836060015194509450945094505092959194509250565b60008054906101000a900473ffffffffffffffffffffffffffffffffffffffff1673ffffffffffffffffffffffffffffffffffffffff163373ffffffffffffffffffffffffffffffffffffffff1614611503576040517f08c379a00000000000000000000000000000000000000000000000000000000081526004016114fa9061271f565b60405180910390fd5b600160008273ffffffffffffffffffffffffffffffffffffffff1673ffffffffffffffffffffffffffffffffffffffff16815260200190815260200160002060000160009054906101000a900460ff16611592576040517f08c379a00000000000000000000000000000000000000000000000000000000081526004016115899061278b565b60405180910390fd5b600160008273ffffffffffffffffffffffffffffffffffffffff1673ffffffffffffffffffffffffffffffffffffffff16815260200190815260200160002060000160019054906101000a900460ff1615611622576040517f08c379a0000000000000000000000000000000000000000000000000000000008152600401611619906128f3565b60405180910390fd5b60018060008373ffffffffffffffffffffffffffffffffffffffff1673ffffffffffffffffffffffffffffffffffffffff16815260200190815260200160002060000160016101000a81548160ff0219169083151502179055506000600160008373ffffffffffffffffffffffffffffffffffffffff1673ffffffffffffffffffffffffffffffffffffffff16815260200190815260200160002060000160026101000a81548160ff02191690831515021790555060405180602001604052806000815250600160008373ffffffffffffffffffffffffffffffffffffffff1673ffffffffffffffffffffffffffffffffffffffff168152602001908152602001600020600101908161173591906123ed565b508073ffffffffffffffffffffffffffffffffffffffff167ffbb0a472171a6eb950c8a87421215268a1b2df816da0a48e920e72ade27cfcf760405160405180910390a250565b600080600060606000600160008773ffffffffffffffffffffffffffffffffffffffff1673ffffffffffffffffffffffffffffffffffffffff1681526020019081526020016000206040518060800160405290816000820160009054906101000a900460ff161515151581526020016000820160019054906101000a900460ff161515151581526020016000820160029054906101000a900460ff1615151515815260200160018201805461183090612024565b80601f016020809104026020016040519081016040528092919081815260200182805461185c90612024565b80156118a95780601f1061187e576101008083540402835291602001916118a9565b820191906000526020600020905b81548152906001019060200180831161188c57829003601f168201915b505050505081525050905080600001518160200151826040015183606001519450945094509450509193509193565b60008054906101000a900473ffffffffffffffffffffffffffffffffffffffff1681565b6000604051905090565b600080fd5b600080fd5b600080fd5b600080fd5b6000601f19601f8301169050919050565b7f4e487b7100000000000000000000000000000000000000000000000000000000600052604160045260246000fd5b6119638261191a565b810181811067ffffffffffffffff821117156119825761198161192b565b5b80604052505050565b60006119956118fc565b90506119a1828261195a565b919050565b600067ffffffffffffffff8211156119c1576119c061192b565b5b6119ca8261191a565b9050602081019050919050565b82818337600083830152505050565b60006119f96119f4846119a6565b61198b565b905082815260208101848484011115611a1557611a14611915565b5b611a208482856119d7565b509392505050565b600082601f830112611a3d57611a3c611910565b5b8135611a4d8482602086016119e6565b91505092915050565b600060208284031215611a6c57611a6b611906565b5b600082013567ffffffffffffffff811115611a8a57611a8961190b565b5b611a9684828501611a28565b91505092915050565b600081519050919050565b600082825260208201905092915050565b60005b83811015611ad9578082015181840152602081019050611abe565b60008484015250505050565b6000611af082611a9f565b611afa8185611aaa565b9350611b0a818560208601611abb565b611b138161191a565b840191505092915050565b60008115159050919050565b611b3381611b1e565b82525050565b60006080820190508181036000830152611b538187611ae5565b9050611b626020830186611b2a565b611b6f6040830185611b2a565b611b7c6060830184611b2a565b95945050505050565b600080fd5b600080fd5b60008083601f840112611ba557611ba4611910565b5b8235905067ffffffffffffffff811115611bc257611bc1611b85565b5b602083019150836001820283011115611bde57611bdd611b8a565b5b9250929050565b60008060208385031215611bfc57611bfb611906565b5b600083013567ffffffffffffffff811115611c1a57611c1961190b565b5b611c2685828601611b8f565b92509250509250929050565b6000602082019050611c476000830184611b2a565b92915050565b600073ffffffffffffffffffffffffffffffffffffffff82169050919050565b6000611c7882611c4d565b9050919050565b611c8881611c6d565b8114611c9357600080fd5b50565b600081359050611ca581611c7f565b92915050565b6000819050919050565b611cbe81611cab565b8114611cc957600080fd5b50565b600081359050611cdb81611cb5565b92915050565b60008060408385031215611cf857611cf7611906565b5b6000611d0685828601611c96565b9250506020611d1785828601611ccc565b9150509250929050565b60006020820190508181036000830152611d3b8184611ae5565b905092915050565b60008060008060408587031215611d5d57611d5c611906565b5b600085013567ffffffffffffffff811115611d7b57611d7a61190b565b5b611d8787828801611b8f565b9450945050602085013567ffffffffffffffff811115611daa57611da961190b565b5b611db687828801611b8f565b925092505092959194509250565b600060208284031215611dda57611dd9611906565b5b6000611de884828501611c96565b91505092915050565b600081519050919050565b600082825260208201905092915050565b6000819050602082019050919050565b600082825260208201905092915050565b6000611e3982611a9f565b611e438185611e1d565b9350611e53818560208601611abb565b611e5c8161191a565b840191505092915050565b6000611e738383611e2e565b905092915050565b6000602082019050919050565b6000611e9382611df1565b611e9d8185611dfc565b935083602082028501611eaf85611e0d565b8060005b85811015611eeb5784840389528151611ecc8582611e67565b9450611ed783611e7b565b925060208a01995050600181019050611eb3565b50829750879550505050505092915050565b60006020820190508181036000830152611f178184611e88565b905092915050565b6000608082019050611f346000830187611b2a565b611f416020830186611b2a565b611f4e6040830185611b2a565b8181036060830152611f608184611ae5565b905095945050505050565b600080600060408486031215611f8457611f83611906565b5b6000611f9286828701611c96565b935050602084013567ffffffffffffffff811115611fb357611fb261190b565b5b611fbf86828701611b8f565b92509250509250925092565b611fd481611c6d565b82525050565b6000602082019050611fef6000830184611fcb565b92915050565b7f4e487b7100000000000000000000000000000000000000000000000000000000600052602260045260246000fd5b6000600282049050600182168061203c57607f821691505b60208210810361204f5761204e611ff5565b5b50919050565b600081905092915050565b600061206c8385612055565b93506120798385846119d7565b82840190509392505050565b6000612092828486612060565b91508190509392505050565b7f55736572206e6f7420617070726f766564000000000000000000000000000000600082015250565b60006120d4601183611aaa565b91506120df8261209e565b602082019050919050565b60006020820190508181036000830152612103816120c7565b9050919050565b7f4c6963656e736520646f6573206e6f7420657869737400000000000000000000600082015250565b6000612140601683611aaa565b915061214b8261210a565b602082019050919050565b6000602082019050818103600083015261216f81612133565b9050919050565b60006121828385611aaa565b935061218f8385846119d7565b6121988361191a565b840190509392505050565b600060408201905081810360008301526121be818587612176565b90506121cd6020830184611fcb565b949350505050565b7f5573657220616c72656164792072656769737465726564000000000000000000600082015250565b600061220b601783611aaa565b9150612216826121d5565b602082019050919050565b6000602082019050818103600083015261223a816121fe565b9050919050565b60008190508160005260206000209050919050565b60006020601f8301049050919050565b600082821b905092915050565b6000600883026122a37fffffffffffffffffffffffffffffffffffffffffffffffffffffffffffffffff82612266565b6122ad8683612266565b95508019841693508086168417925050509392505050565b6000819050919050565b60006122ea6122e56122e084611cab565b6122c5565b611cab565b9050919050565b6000819050919050565b612304836122cf565b612318612310826122f1565b848454612273565b825550505050565b600090565b61232d612320565b6123388184846122fb565b505050565b5b8181101561235c57612351600082612325565b60018101905061233e565b5050565b601f8211156123a15761237281612241565b61237b84612256565b8101602085101561238a578190505b61239e61239685612256565b83018261233d565b50505b505050565b600082821c905092915050565b60006123c4600019846008026123a6565b1980831691505092915050565b60006123dd83836123b3565b9150826002028217905092915050565b6123f682611a9f565b67ffffffffffffffff81111561240f5761240e61192b565b5b6124198254612024565b612424828285612360565b600060209050601f8311600181146124575760008415612445578287015190505b61244f85826123d1565b8655506124b7565b601f19841661246586612241565b60005b8281101561248d57848901518255600182019150602085019450602081019050612468565b868310156124aa57848901516124a6601f8916826123b3565b8355505b6001600288020188555050505b505050505050565b7f4c6963656e736520616c726561647920637261636b6564000000000000000000600082015250565b60006124f5601783611aaa565b9150612500826124bf565b602082019050919050565b60006020820190508181036000830152612524816124e8565b9050919050565b7f4c6963656e736520616c72656164792065786973747300000000000000000000600082015250565b6000612561601683611aaa565b915061256c8261252b565b602082019050919050565b6000602082019050818103600083015261259081612554565b9050919050565b600082905092915050565b6125ac8383612597565b67ffffffffffffffff8111156125c5576125c461192b565b5b6125cf8254612024565b6125da828285612360565b6000601f83116001811461260957600084156125f7578287013590505b61260185826123d1565b865550612669565b601f19841661261786612241565b60005b8281101561263f5784890135825560018201915060208501945060208101905061261a565b8683101561265c5784890135612658601f8916826123b3565b8355505b6001600288020188555050505b50505050505050565b6000604082019050818103600083015261268d818688612176565b905081810360208301526126a2818486612176565b905095945050505050565b7f4f6e6c792061646d696e2063616e20706572666f726d2074686973206163746960008201527f6f6e000000000000000000000000000000000000000000000000000000000000602082015250565b6000612709602283611aaa565b9150612714826126ad565b604082019050919050565b60006020820190508181036000830152612738816126fc565b9050919050565b7f55736572206e6f74207265676973746572656400000000000000000000000000600082015250565b6000612775601383611aaa565b91506127808261273f565b602082019050919050565b600060208201905081810360008301526127a481612768565b9050919050565b7f5573657220616c72656164792072656a65637465640000000000000000000000600082015250565b60006127e1601583611aaa565b91506127ec826127ab565b602082019050919050565b60006020820190508181036000830152612810816127d4565b9050919050565b7f52656a656374696f6e20726561736f6e20726571756972656400000000000000600082015250565b600061284d601983611aaa565b915061285882612817565b602082019050919050565b6000602082019050818103600083015261287c81612840565b9050919050565b6000602082019050818103600083015261289e818486612176565b90509392505050565b7f5573657220616c726561647920617070726f7665640000000000000000000000600082015250565b60006128dd601583611aaa565b91506128e8826128a7565b602082019050919050565b6000602082019050818103600083015261290c816128d0565b905091905056fea2646970667358221220a3d56ec7f91a923e84a4aa75b9ebae6e8d1ee2d086c8b950bc86e9f1876400a064736f6c634300081c0033",
  "linkReferences": {},
  "deployedLinkReferences": {}
}