{
  "_format": "hh-sol-artifact-1",
  "contractName": "LicenseManager",
  "sourceName": "contracts/licensemanager.sol",
  "abi": [
    {
      "inputs": [],
      "stateMutability": "nonpayable",
      "type": "constructor"
    },
    {
      "anonymous": false,
      "inputs": [
        {
          "indexed": false,
          "internalType": "string",
          "name": "licenseKey",
          "type": "string"
        },
        {
          "indexed": false,
          "internalType": "address",
          "name": "reporter",
          "type": "address"
        }
      ],
      "name": "LicenseCracked",
      "type": "event"
    },
    {
      "anonymous": false,
      "inputs": [
        {
          "indexed": true,
          "internalType": "address",
          "name": "user",
          "type": "address"
        },
        {
          "indexed": false,
          "internalType": "string",
          "name": "licenseKey",
          "type": "string"
        },
        {
          "indexed": false,
          "internalType": "string",
          "name": "softwareName",
          "type": "string"
        }
      ],
      "name": "LicenseIssued",
      "type": "event"
    },
    {
      "anonymous": false,
      "inputs": [
        {
          "indexed": false,
          "internalType": "string",
          "name": "licenseKey",
          "type": "string"
        },
        {
          "indexed": false,
          "internalType": "address",
          "name": "reporter",
          "type": "address"
        }
      ],
      "name": "LicenseTampered",
      "type": "event"
    },
    {
      "inputs": [
        {
          "internalType": "string",
          "name": "licenseKey",
          "type": "string"
        }
      ],
      "name": "getLicenseDetails",
      "outputs": [
        {
          "internalType": "string",
          "name": "softwareName",
          "type": "string"
        },
        {
          "internalType": "bool",
          "name": "exists",
          "type": "bool"
        },
        {
          "internalType": "bool",
          "name": "isTampered",
          "type": "bool"
        },
        {
          "internalType": "bool",
          "name": "isCracked",
          "type": "bool"
        }
      ],
      "stateMutability": "view",
      "type": "function"
    },
    {
      "inputs": [
        {
          "internalType": "address",
          "name": "user",
          "type": "address"
        }
      ],
      "name": "getUserLicenses",
      "outputs": [
        {
          "internalType": "string[]",
          "name": "",
          "type": "string[]"
        }
      ],
      "stateMutability": "view",
      "type": "function"
    },
    {
      "inputs": [
        {
          "internalType": "string",
          "name": "licenseKey",
          "type": "string"
        }
      ],
      "name": "isAuthentic",
      "outputs": [
        {
          "internalType": "bool",
          "name": "",
          "type": "bool"
        }
      ],
      "stateMutability": "view",
      "type": "function"
    },
    {
      "inputs": [
        {
          "internalType": "string",
          "name": "licenseKey",
          "type": "string"
        },
        {
          "internalType": "string",
          "name": "softwareName",
          "type": "string"
        }
      ],
      "name": "issueLicense",
      "outputs": [],
      "stateMutability": "nonpayable",
      "type": "function"
    },
    {
      "inputs": [
        {
          "internalType": "string",
          "name": "",
          "type": "string"
        }
      ],
      "name": "licenses",
      "outputs": [
        {
          "internalType": "string",
          "name": "softwareName",
          "type": "string"
        },
        {
          "internalType": "bool",
          "name": "exists",
          "type": "bool"
        },
        {
          "internalType": "bool",
          "name": "isTampered",
          "type": "bool"
        },
        {
          "internalType": "bool",
          "name": "isCracked",
          "type": "bool"
        }
      ],
      "stateMutability": "view",
      "type": "function"
    },
    {
      "inputs": [
        {
          "internalType": "string",
          "name": "licenseKey",
          "type": "string"
        }
      ],
      "name": "reportCracked",
      "outputs": [],
      "stateMutability": "nonpayable",
      "type": "function"
    },
    {
      "inputs": [
        {
          "internalType": "string",
          "name": "licenseKey",
          "type": "string"
        }
      ],
      "name": "reportTampered",
      "outputs": [],
      "stateMutability": "nonpayable",
      "type": "function"
    },
    {
      "inputs": [
        {
          "internalType": "address",
          "name": "",
          "type": "address"
        },
        {
          "internalType": "uint256",
          "name": "",
          "type": "uint256"
        }
      ],
      "name": "userLicenses",
      "outputs": [
        {
          "internalType": "string",
          "name": "",
          "type": "string"
        }
      ],
      "stateMutability": "view",
      "type": "function"
    }
  ],
  "bytecode": "0x6080604052348015600f57600080fd5b506117f08061001f6000396000f3fe608060405234801561001057600080fd5b50600436106100885760003560e01c806366661a311161005b57806366661a311461013c57806367c26ef31461015857806375a106c314610174578063c131a2c9146101a457610088565b80630540dafd1461008d5780631c003077146100c05780632af58bf9146100f0578063454c1d311461010c575b600080fd5b6100a760048036038101906100a29190610d02565b6101d7565b6040516100b79493929190610de5565b60405180910390f35b6100da60048036038101906100d59190610e91565b6102cc565b6040516100e79190610ede565b60405180910390f35b61010a60048036038101906101059190610e91565b610409565b005b61012660048036038101906101219190610f8d565b6104f3565b6040516101339190610fcd565b60405180910390f35b61015660048036038101906101519190610e91565b6105ac565b005b610172600480360381019061016d9190610fef565b610707565b005b61018e60048036038101906101899190611070565b610953565b60405161019b91906111a9565b60405180910390f35b6101be60048036038101906101b99190610e91565b610a6a565b6040516101ce9493929190610de5565b60405180910390f35b600181805160208101820180518482526020830160208501208183528095505050505050600091509050806000018054610210906111fa565b80601f016020809104026020016040519081016040528092919081815260200182805461023c906111fa565b80156102895780601f1061025e57610100808354040283529160200191610289565b820191906000526020600020905b81548152906001019060200180831161026c57829003601f168201915b5050505050908060010160009054906101000a900460ff16908060010160019054906101000a900460ff16908060010160029054906101000a900460ff16905084565b600080600184846040516102e192919061125b565b908152602001604051809103902060405180608001604052908160008201805461030a906111fa565b80601f0160208091040260200160405190810160405280929190818152602001828054610336906111fa565b80156103835780601f1061035857610100808354040283529160200191610383565b820191906000526020600020905b81548152906001019060200180831161036657829003601f168201915b505050505081526020016001820160009054906101000a900460ff161515151581526020016001820160019054906101000a900460ff161515151581526020016001820160029054906101000a900460ff1615151515815250509050806020015180156103f257508060400151155b801561040057508060600151155b91505092915050565b6001828260405161041b92919061125b565b908152602001604051809103902060010160009054906101000a900460ff16610479576040517f08c379a0000000000000000000000000000000000000000000000000000000008152600401610470906112c0565b60405180910390fd5b600180838360405161048c92919061125b565b908152602001604051809103902060010160016101000a81548160ff0219169083151502179055507fd135e5ec6fdcbcf982af5e6fe7a390999dfba9829762f3c6d77df17ce5a958c78282336040516104e79392919061131c565b60405180910390a15050565b6000602052816000526040600020818154811061050f57600080fd5b9060005260206000200160009150915050805461052b906111fa565b80601f0160208091040260200160405190810160405280929190818152602001828054610557906111fa565b80156105a45780601f10610579576101008083540402835291602001916105a4565b820191906000526020600020905b81548152906001019060200180831161058757829003601f168201915b505050505081565b600182826040516105be92919061125b565b908152602001604051809103902060010160009054906101000a900460ff1661061c576040517f08c379a0000000000000000000000000000000000000000000000000000000008152600401610613906112c0565b60405180910390fd5b6001828260405161062e92919061125b565b908152602001604051809103902060010160029054906101000a900460ff161561068d576040517f08c379a00000000000000000000000000000000000000000000000000000000081526004016106849061139a565b60405180910390fd5b60018083836040516106a092919061125b565b908152602001604051809103902060010160026101000a81548160ff0219169083151502179055507f23c663a264db9efe4a2619e5eae301b37626dbf125b35fe4a3850f23d30ea9838282336040516106fb9392919061131c565b60405180910390a15050565b6001848460405161071992919061125b565b908152602001604051809103902060010160009054906101000a900460ff1615610778576040517f08c379a000000000000000000000000000000000000000000000000000000000815260040161076f90611406565b60405180910390fd5b604051806080016040528083838080601f016020809104026020016040519081016040528093929190818152602001838380828437600081840152601f19601f82011690508083019250505050505050815260200160011515815260200160001515815260200160001515815250600185856040516107f892919061125b565b9081526020016040518091039020600082015181600001908161081b91906115d2565b5060208201518160010160006101000a81548160ff02191690831515021790555060408201518160010160016101000a81548160ff02191690831515021790555060608201518160010160026101000a81548160ff0219169083151502179055509050506000803373ffffffffffffffffffffffffffffffffffffffff1673ffffffffffffffffffffffffffffffffffffffff1681526020019081526020016000208484909180600181540180825580915050600190039060005260206000200160009091929091929091929091925091826108f89291906116af565b503373ffffffffffffffffffffffffffffffffffffffff167fe28ba61a04e35848eeaf812287ea3b908fac39b64055f8f2b3d66eb9d8c8d18d85858585604051610945949392919061177f565b60405180910390a250505050565b60606000808373ffffffffffffffffffffffffffffffffffffffff1673ffffffffffffffffffffffffffffffffffffffff168152602001908152602001600020805480602002602001604051908101604052809291908181526020016000905b82821015610a5f5783829060005260206000200180546109d2906111fa565b80601f01602080910402602001604051908101604052809291908181526020018280546109fe906111fa565b8015610a4b5780601f10610a2057610100808354040283529160200191610a4b565b820191906000526020600020905b815481529060010190602001808311610a2e57829003601f168201915b5050505050815260200190600101906109b3565b505050509050919050565b606060008060008060018787604051610a8492919061125b565b9081526020016040518091039020604051806080016040529081600082018054610aad906111fa565b80601f0160208091040260200160405190810160405280929190818152602001828054610ad9906111fa565b8015610b265780601f10610afb57610100808354040283529160200191610b26565b820191906000526020600020905b815481529060010190602001808311610b0957829003601f168201915b505050505081526020016001820160009054906101000a900460ff161515151581526020016001820160019054906101000a900460ff161515151581526020016001820160029054906101000a900460ff1615151515815250509050806000015181602001518260400151836060015194509450945094505092959194509250565b6000604051905090565b600080fd5b600080fd5b600080fd5b600080fd5b6000601f19601f8301169050919050565b7f4e487b7100000000000000000000000000000000000000000000000000000000600052604160045260246000fd5b610c0f82610bc6565b810181811067ffffffffffffffff82111715610c2e57610c2d610bd7565b5b80604052505050565b6000610c41610ba8565b9050610c4d8282610c06565b919050565b600067ffffffffffffffff821115610c6d57610c6c610bd7565b5b610c7682610bc6565b9050602081019050919050565b82818337600083830152505050565b6000610ca5610ca084610c52565b610c37565b905082815260208101848484011115610cc157610cc0610bc1565b5b610ccc848285610c83565b509392505050565b600082601f830112610ce957610ce8610bbc565b5b8135610cf9848260208601610c92565b91505092915050565b600060208284031215610d1857610d17610bb2565b5b600082013567ffffffffffffffff811115610d3657610d35610bb7565b5b610d4284828501610cd4565b91505092915050565b600081519050919050565b600082825260208201905092915050565b60005b83811015610d85578082015181840152602081019050610d6a565b60008484015250505050565b6000610d9c82610d4b565b610da68185610d56565b9350610db6818560208601610d67565b610dbf81610bc6565b840191505092915050565b60008115159050919050565b610ddf81610dca565b82525050565b60006080820190508181036000830152610dff8187610d91565b9050610e0e6020830186610dd6565b610e1b6040830185610dd6565b610e286060830184610dd6565b95945050505050565b600080fd5b600080fd5b60008083601f840112610e5157610e50610bbc565b5b8235905067ffffffffffffffff811115610e6e57610e6d610e31565b5b602083019150836001820283011115610e8a57610e89610e36565b5b9250929050565b60008060208385031215610ea857610ea7610bb2565b5b600083013567ffffffffffffffff811115610ec657610ec5610bb7565b5b610ed285828601610e3b565b92509250509250929050565b6000602082019050610ef36000830184610dd6565b92915050565b600073ffffffffffffffffffffffffffffffffffffffff82169050919050565b6000610f2482610ef9565b9050919050565b610f3481610f19565b8114610f3f57600080fd5b50565b600081359050610f5181610f2b565b92915050565b6000819050919050565b610f6a81610f57565b8114610f7557600080fd5b50565b600081359050610f8781610f61565b92915050565b60008060408385031215610fa457610fa3610bb2565b5b6000610fb285828601610f42565b9250506020610fc385828601610f78565b9150509250929050565b60006020820190508181036000830152610fe78184610d91565b905092915050565b6000806000806040858703121561100957611008610bb2565b5b600085013567ffffffffffffffff81111561102757611026610bb7565b5b61103387828801610e3b565b9450945050602085013567ffffffffffffffff81111561105657611055610bb7565b5b61106287828801610e3b565b925092505092959194509250565b60006020828403121561108657611085610bb2565b5b600061109484828501610f42565b91505092915050565b600081519050919050565b600082825260208201905092915050565b6000819050602082019050919050565b600082825260208201905092915050565b60006110e582610d4b565b6110ef81856110c9565b93506110ff818560208601610d67565b61110881610bc6565b840191505092915050565b600061111f83836110da565b905092915050565b6000602082019050919050565b600061113f8261109d565b61114981856110a8565b93508360208202850161115b856110b9565b8060005b8581101561119757848403895281516111788582611113565b945061118383611127565b925060208a0199505060018101905061115f565b50829750879550505050505092915050565b600060208201905081810360008301526111c38184611134565b905092915050565b7f4e487b7100000000000000000000000000000000000000000000000000000000600052602260045260246000fd5b6000600282049050600182168061121257607f821691505b602082108103611225576112246111cb565b5b50919050565b600081905092915050565b6000611242838561122b565b935061124f838584610c83565b82840190509392505050565b6000611268828486611236565b91508190509392505050565b7f4c6963656e736520646f6573206e6f7420657869737400000000000000000000600082015250565b60006112aa601683610d56565b91506112b582611274565b602082019050919050565b600060208201905081810360008301526112d98161129d565b9050919050565b60006112ec8385610d56565b93506112f9838584610c83565b61130283610bc6565b840190509392505050565b61131681610f19565b82525050565b600060408201905081810360008301526113378185876112e0565b9050611346602083018461130d565b949350505050565b7f4c6963656e736520616c726561647920637261636b6564000000000000000000600082015250565b6000611384601783610d56565b915061138f8261134e565b602082019050919050565b600060208201905081810360008301526113b381611377565b9050919050565b7f4c6963656e736520616c72656164792065786973747300000000000000000000600082015250565b60006113f0601683610d56565b91506113fb826113ba565b602082019050919050565b6000602082019050818103600083015261141f816113e3565b9050919050565b60008190508160005260206000209050919050565b60006020601f8301049050919050565b600082821b905092915050565b6000600883026114887fffffffffffffffffffffffffffffffffffffffffffffffffffffffffffffffff8261144b565b611492868361144b565b95508019841693508086168417925050509392505050565b6000819050919050565b60006114cf6114ca6114c584610f57565b6114aa565b610f57565b9050919050565b6000819050919050565b6114e9836114b4565b6114fd6114f5826114d6565b848454611458565b825550505050565b600090565b611512611505565b61151d8184846114e0565b505050565b5b818110156115415761153660008261150a565b600181019050611523565b5050565b601f8211156115865761155781611426565b6115608461143b565b8101602085101561156f578190505b61158361157b8561143b565b830182611522565b50505b505050565b600082821c905092915050565b60006115a96000198460080261158b565b1980831691505092915050565b60006115c28383611598565b9150826002028217905092915050565b6115db82610d4b565b67ffffffffffffffff8111156115f4576115f3610bd7565b5b6115fe82546111fa565b611609828285611545565b600060209050601f83116001811461163c576000841561162a578287015190505b61163485826115b6565b86555061169c565b601f19841661164a86611426565b60005b828110156116725784890151825560018201915060208501945060208101905061164d565b8683101561168f578489015161168b601f891682611598565b8355505b6001600288020188555050505b505050505050565b600082905092915050565b6116b983836116a4565b67ffffffffffffffff8111156116d2576116d1610bd7565b5b6116dc82546111fa565b6116e7828285611545565b6000601f8311600181146117165760008415611704578287013590505b61170e85826115b6565b865550611776565b601f19841661172486611426565b60005b8281101561174c57848901358255600182019150602085019450602081019050611727565b868310156117695784890135611765601f891682611598565b8355505b6001600288020188555050505b50505050505050565b6000604082019050818103600083015261179a8186886112e0565b905081810360208301526117af8184866112e0565b90509594505050505056fea264697066735822122088ad7bb32e04dc260b06e5679c57415fe55957a86e97cd67e19147a15d95c34264736f6c634300081c0033",
  "linkReferences": {},
  "deployedLinkReferences": {}
}